:020000040800F2
:1000000000300020F9490008894700088B470008A4
:100010008D4700088F470008914700080000000046
:1000200000000000000000000000000093470008EE
:10003000954700080000000097470008994700080E
:10004000494A0008494A0008494A0008494A000844
:10005000494A0008494A0008494A0008494A000834
:10006000494A0008494A0008494A00089D470008D3
:10007000A9470008494A0008494A0008494A0008B7
:10008000494A0008494A0008494A0008494A000804
:10009000C1470008B5470008494A0008494A000816
:1000A000494A0008494A0008494A0008494A0008E4
:1000B000494A0008494A000800000000494A00086F
:1000C000494A00080000000000000000494A0008FA
:1000D00000000000494A0008494A0008494A00084F
:1000E000494A0008494A00080000000000000000DA
:1000F0000000000000000000000000000000000000
:1001000000000000000000000000000000000000EF
:100110000000000000000000C5470008494A000830
:1001200000000000000000000000000000000000CF
:1001300000000000000000000000000000000000BF
:10014000494A0008494A0008000000000000000079
:10015000000000000000000000000000000000009F
:10016000000000000000000000000000000000008F
:10017000000000000000000000000000000000007F
:0801800000000000494A0008DC
:1001900010B5054C237833B9044B13B10448AFF3C1
:1001A00000800123237010BD7C06002000000000A9
:1001B000C485000808B5034B1BB103490348AFF3DE
:1001C000008008BD0000000080060020C4850008F3
:1001D00001F0FF01102A2BDB10F0070F08D010F8F8
:1001E000013B013A8B422DD010F0070F42B3F6D1FC
:1001F000F0B441EA012141EA014122F007047FF015
:1002000000070023F0E80256083C85EA010586EA6B
:10021000010685FA47F5A3FA87F586FA47F6A5FAA7
:1002200087F68EB9EED1F0BC01F0FF0102F00702B3
:1002300032B110F8013B013A83EA010313B1F8D15E
:100240000020704701387047002D06BF354603383F
:10025000073815F0010F07D1013015F4807F02BF78
:10026000013015F4C03F0130F0BC0138704700BFC9
:10027000034613F8012B002AFBD1181A01387047E6
:1002800081F0004102E000BF83F0004330B54FEA47
:1002900041044FEA430594EA050F08BF90EA020FB4
:1002A0001FBF54EA000C55EA020C7FEA645C7FEA47
:1002B000655C00F0E2804FEA5454D4EB5555B8BF6A
:1002C0006D420CDD2C4480EA020281EA030382EADB
:1002D000000083EA010180EA020281EA0303362D6D
:1002E00088BF30BD11F0004F4FEA01314FF4801C40
:1002F0004CEA113102D0404261EB410113F0004F52
:100300004FEA03334CEA133302D0524263EB430308
:1003100094EA050F00F0A780A4F10104D5F1200EA6
:100320000DDB02FA0EFC22FA05F2801841F1000101
:1003300003FA0EF2801843FA05F359410EE0A5F1D5
:1003400020050EF1200E012A03FA0EFC28BF4CF006
:10035000020C43FA05F3C01851EBE37101F00045BC
:1003600007D54FF0000EDCF1000C7EEB00006EEBC9
:100370000101B1F5801F1BD3B1F5001F0CD3490853
:100380005FEA30004FEA3C0C04F101044FEA4452AA
:1003900012F5800F80F09A80BCF1004F08BF5FEA31
:1003A000500C50F1000041EB045141EA050130BD11
:1003B0005FEA4C0C404141EB010111F4801FA4F1B4
:1003C0000104E9D191F0000F04BF01460020B1FA09
:1003D00081F308BF2033A3F10B03B3F120020CDA41
:1003E0000C3208DD02F1140CC2F10C0201FA0CF01F
:1003F00021FA02F10CE002F11402D8BFC2F1200C84
:1004000001FA02F120FA0CFCDCBF41EA0C01904039
:10041000E41AA2BF01EB0451294330BD6FEA040482
:100420001F3C1CDA0C340EDC04F11404C4F120026D
:1004300020FA04F001FA02F340EA030021FA04F37F
:1004400045EA030130BDC4F10C04C4F1200220FAD6
:1004500002F001FA04F340EA0300294630BD21FA14
:1004600004F0294630BD94F0000F83F4801306BFDA
:1004700081F480110134013D4EE77FEA645C18BFCE
:100480007FEA655C29D094EA050F08BF90EA020F65
:1004900005D054EA000C04BF1946104630BD91EA5D
:1004A000030F1EBF0021002030BD5FEA545C05D160
:1004B0004000494128BF41F0004130BD14F580049F
:1004C0003CBF01F5801130BD01F0004545F0FE4113
:1004D00041F470014FF0000030BD7FEA645C1ABF48
:1004E000194610467FEA655C1CBF0B46024650EA7F
:1004F000013406BF52EA033591EA030F41F40021AB
:1005000030BD00BF90F0000F04BF0021704730B530
:100510004FF4806404F132044FF000054FF0000105
:1005200050E700BF90F0000F04BF0021704730B5C6
:100530004FF4806404F1320410F0004548BF40429B
:100540004FF000013EE700BF42004FEAE2014FEAF0
:1005500031014FEA02701FBF12F07F4393F07F4FCB
:1005600081F06051704792F0000F14BF93F07F4FFD
:10057000704730B54FF4607401F0004521F0004140
:1005800020E700BF50EA010208BF704730B54FF0C6
:1005900000050AE050EA010208BF704730B511F0CB
:1005A000004502D5404261EB41014FF4806404F103
:1005B00032045FEA915C3FF4DCAE4FF003025FEA85
:1005C000DC0C18BF03325FEADC0C18BF033202EB0D
:1005D000DC02C2F1200300FA03FC20FA02F001FA67
:1005E00003FE40EA0E0021FA02F11444C1E600BF06
:1005F00070B54FF0FF0C4CF4E06C1CEA11541DBFB9
:100600001CEA135594EA0C0F95EA0C0F00F0DEF883
:100610002C4481EA030621EA4C5123EA4C5350EA68
:10062000013518BF52EA033541F4801143F48013B9
:1006300038D0A0FB02CE4FF00005E1FB02E506F04A
:100640000042E0FB03E54FF00006E1FB03569CF09F
:10065000000F18BF4EF0010EA4F1FF04B6F5007FA5
:1006600064F5407404D25FEA4E0E6D4146EB060617
:1006700042EAC62141EA55514FEAC52040EA5E50A0
:100680004FEACE2EB4F1FD0C88BFBCF5E06F1ED84A
:10069000BEF1004F08BF5FEA500E50F1000041EB81
:1006A000045170BD06F0004646EA010140EA02002E
:1006B00081EA0301B4EB5C04C2BFD4EB0C0541EA50
:1006C000045170BD41F480114FF0000E013C00F365
:1006D000AB8014F1360FDEBF002001F0004170BD89
:1006E000C4F10004203C35DA0C341BDC04F11404A2
:1006F000C4F1200500FA05F320FA04F001FA05F22E
:1007000040EA020001F0004221F0004110EBD370FA
:1007100021FA04F642EB06015EEA430E08BF20EA26
:10072000D37070BDC4F10C04C4F1200500FA04F3C9
:1007300020FA05F001FA04F240EA020001F000415B
:1007400010EBD37041F100015EEA430E08BF20EACE
:10075000D37070BDC4F1200500FA05F24EEA020E16
:1007600020FA04F301FA05F243EA020321FA04F045
:1007700001F0004121FA04F220EA020000EBD370FC
:100780005EEA430E08BF20EAD37070BD94F0000FFC
:100790000FD101F00046400041EB010111F4801F30
:1007A00008BF013CF7D041EA060195F0000F18BFE1
:1007B000704703F00046520043EB030313F4801F1D
:1007C00008BF013DF7D043EA0603704794EA0C0FD7
:1007D0000CEA135518BF95EA0C0F0CD050EA4106ED
:1007E00018BF52EA4306D1D181EA030101F000416A
:1007F0004FF0000070BD50EA410606BF1046194692
:1008000052EA430619D094EA0C0F02D150EA01369D
:1008100013D195EA0C0F05D152EA03361CBF1046DE
:1008200019460AD181EA030101F0004141F0FE417D
:1008300041F470014FF0000070BD41F0FE4141F401
:10084000780170BD70B54FF0FF0C4CF4E06C1CEA01
:1008500011541DBF1CEA135594EA0C0F95EA0C0FB6
:1008600000F0A7F8A4EB050481EA030E52EA033571
:100870004FEA013100F088804FEA03334FF0805592
:1008800045EA131343EA12634FEA022245EA1115BF
:1008900045EA10654FEA00260EF000419D4208BF70
:1008A000964244F1FD0404F5407402D25B084FEA1D
:1008B0003202B61A65EB03055B084FEA32024FF4C9
:1008C00080104FF4002CB6EB020E75EB030E22BF26
:1008D000B61A754640EA0C005B084FEA3202B6EBE6
:1008E000020E75EB030E22BFB61A754640EA5C0095
:1008F0005B084FEA3202B6EB020E75EB030E22BF25
:10090000B61A754640EA9C005B084FEA3202B6EB25
:10091000020E75EB030E22BFB61A754640EADC00E4
:1009200055EA060E18D04FEA051545EA16754FEA46
:1009300006164FEAC30343EA52734FEAC2025FEA64
:100940001C1CC0D111F4801F0BD141EA00014FF0F3
:1009500000004FF0004CB6E711F4801F04BF0143C4
:100960000020B4F1FD0C88BFBCF5E06F3FF6AFAEE0
:10097000B5EB030C04BFB6EB020C5FEA500C50F170
:10098000000041EB045170BD0EF0004E4EEA1131F3
:1009900014EB5C04C2BFD4EB0C0541EA045170BDFA
:1009A00041F480114FF0000E013C90E645EA060E3E
:1009B0008DE60CEA135594EA0C0F08BF95EA0C0F6C
:1009C0003FF43BAF94EA0C0F0AD150EA01347FF4B4
:1009D00034AF95EA0C0F7FF425AF104619462CE78B
:1009E00095EA0C0F06D152EA03353FF4FDAE1046EE
:1009F000194622E750EA410618BF52EA43067FF43F
:100A0000C5AE50EA41047FF40DAF52EA43057FF4CE
:100A1000EBAE12E74FF0FF3C06E000BF4FF0010CD9
:100A200002E000BF4FF0010C4DF804CD4FEA410C3D
:100A30007FEA6C5C4FEA430C18BF7FEA6C5C1BD00A
:100A400001B050EA410C0CBF52EA430C91EA030F8B
:100A500002BF90EA020F0020704710F1000F91EAE8
:100A6000030F58BF994208BF90422CBFD8176FEAB6
:100A7000E37040F0010070474FEA410C7FEA6C5C84
:100A800002D150EA013C07D14FEA430C7FEA6C5C8B
:100A9000D6D152EA033CD3D05DF8040B704700BFB7
:100AA0008446104662468C461946634600E000BF05
:100AB00001B5FFF7B7FF002848BF10F1000F01BDD7
:100AC0004DF808EDFFF7F4FF0CBF012000205DF8A2
:100AD00008FB00BF4DF808EDFFF7EAFF34BF012027
:100AE00000205DF808FB00BF4DF808EDFFF7E0FFC0
:100AF00094BF012000205DF808FB00BF4DF808ED11
:100B0000FFF7CEFF94BF012000205DF808FB00BF77
:100B10004DF808EDFFF7C4FF34BF012000205DF859
:100B200008FB00BF4FEA410C7FEA6C5C02D150EA3F
:100B3000013C0AD14FEA430C7FEA6C5C02D152EAD5
:100B4000033C02D14FF0000070474FF001007047A6
:100B50004FEA410212F5001215D211D56FF47873E5
:100B6000B3EB625212D94FEAC12343F0004343EA88
:100B7000505311F0004F23FA02F018BF4042704763
:100B80004FF00000704750EA013005D111F00040ED
:100B900008BF6FF0004070474FF00000704700BF83
:100BA00053B94AB9002908BF00281CBF4FF0FF31D4
:100BB0004FF0FF3001F0F6B8ADF1080C6DE904CE4E
:100BC00000F006F8DDF804E0DDE9022304B0704728
:100BD0002DE9F0478C460D460446089E002B51D166
:100BE0008A4217466DD9B2FA82FEBEF1000F0BD0D1
:100BF000CEF1200C01FA0EF520FA0CFC02FA0EF7E9
:100C00004CEA050C00FA0EF44FEA174A250CBCFB1F
:100C1000FAF81FFA87F90AFB18CC45EA0C4508FBDD
:100C200009F3AB420AD9ED1908F1FF3280F02381B4
:100C3000AB4240F22081A8F102083D44ED1AA4B273
:100C4000B5FBFAF00AFB105544EA054400FB09F92C
:100C5000A14509D9E41900F1FF3380F00A81A145CB
:100C600040F2078102383C44A4EB090440EA084002
:100C70000021002E61D024FA0EF40023346073604A
:100C8000BDE8F0878B4207D9002E54D0002186E8BA
:100C900021000846BDE8F087B3FA83F1002940F04F
:100CA0008E80AB4202D3824200F2FA80841A65EB56
:100CB00003050120AC46002E3FD086E81010BDE8A9
:100CC000F08712B90127B7FBF2F7B7FA87FEBEF13A
:100CD000000F34D1EB1B3A0C1FFA87FC0121B3FB48
:100CE000F2F8250C02FB183345EA03450CFB08F328
:100CF000AB4207D9ED1908F1FF3002D2AB4200F246
:100D0000D1808046ED1AA3B2B5FBF2F002FB10557C
:100D100043EA05440CFB00FCA44507D9E41900F1A3
:100D2000FF3302D2A44500F2B8801846A4EB0C04AD
:100D300040EA08409DE731463046BDE8F087CEF1F5
:100D4000200405FA0EF307FA0EF720FA04F83A0C1D
:100D500025FA04F448EA0308B4FBF2F14FEA184517
:100D600002FB11441FFA87FC45EA044501FB0CF322
:100D7000AB4200FA0EF409D9ED1901F1FF3080F011
:100D80008A80AB4240F2878002393D44EB1A1FFA59
:100D900088F5B3FBF2F002FB103345EA034500FB94
:100DA0000CF3AB4207D9ED1900F1FF386FD2AB421B
:100DB0006DD902383D44EB1A40EA01418FE7C1F199
:100DC000200722FA07F88B4005FA01F448EA0303EA
:100DD00020FA07FE4FEA134CFD404EEA040EB5FB25
:100DE000FCF94FEA1E440CFB19551FFA83F844EA3C
:100DF000054509FB08F4AC4202FA01F200FA01FAD7
:100E000008D9ED1809F1FF3043D2AC4241D9A9F11C
:100E100002091D442D1B1FFA8EFEB5FBFCF00CFBD6
:100E200010554EEA054400FB08F8A04507D9E41820
:100E300000F1FF3529D2A04527D902381C4440EAE9
:100E40000940A4EB0804A0FB02894C45C6464D4668
:100E500015D312D056B1BAEB0E0364EB050404FAB5
:100E600007F7CB401F43CC40376074600021BDE8DA
:100E7000F0871846F8E69046E0E6C245EAD2B8EBBD
:100E8000020E69EB03050138E4E72846D7E7404640
:100E900091E78146BEE7014678E702383C4445E7E2
:100EA000084608E7A8F102083D442BE703685A000A
:100EB0004CBF43F0004323F000431844704700BF89
:100EC00061B32DE9F84F01F1FF3A90460646D1464D
:100ED000002707EB090404EBD4746410E5007119D2
:100EE0000846FFF7E3FFA245834605F108003044BA
:100EF00009D0FFF7DBFFC34500F1FF3005D84045BF
:100F000009D2671CE5E7C34505D9A74202D004F121
:100F1000FF39DEE700210846BDE8F88F0846704734
:100F2000012807D0022807D0044B00280CBF184620
:100F30000020704702487047024870472516000895
:100F4000291600082D16000830B5244B83B004463E
:100F50008D1E7BB301A92846AFF3008020B3019911
:100F60002A46FFF7ADFF0146F0B1FFF79FFF4B6840
:100F7000A064012B12D0002B01F1040020DBFFF74D
:100F800095FF0023E06423650368002B1CDBFFF75B
:100F90008DFF00232061184603B030BD002323617C
:100FA0000523184603B030BD0023236109231846EA
:100FB00003B030BD0A490B48091AC9100191CFE7A7
:100FC0000123E0642365DFE7C3F30360FFF7A8FFB5
:100FD0000028206114BF00230923DCE70000000083
:100FE000FC8A0008E48900080368DA0710B50446A3
:100FF00006D49B0700F1480009D500F051FC236896
:10100000590709D51A070ED5DB0613D510BD00F018
:101010003FFC23685907F5D404F1D00000F048FCE8
:1010200023681A07F0D404F5A87000F049FC23687F
:10103000DB06EBD404F5E870BDE8104000F084BC9A
:10104000036803B103441846704700BF0920704786
:10105000704700BF70B504460D4608E02B6C636115
:101060002A462369214601209847082808D1296C7F
:101070002046FFF769FF06460028EFD007F057FA31
:101080000728FBD13046296CFFF7E2FF281D00F04E
:10109000F3FB00BF2DE9F0470C1D054692460FCC2F
:1010A000ADF5727D03AE0FC60FCC0FC60FCC0FC6C9
:1010B00094E80F0002ACD5F80C80D5F8189086E8BB
:1010C0000F0000232846216C2360FFF73DFFBAF193
:1010D000000F074614BF0A2609267FB1A36B46F00E
:1010E00010018DE810022A46636401202B46C04798
:1010F00078BB38460DF5727DBDE8F087236C6B61D7
:101100004FF4F07221467AA806F09AF92B697AAA70
:10111000294630469847889B82468DE81002314622
:1011200063642A462B460120C04790B94FF4F07201
:101130007AA9204606F084F9BAF1080F06D1216C8D
:101140002846FFF701FF09260746C6E7BAF1070F51
:1011500005D0092738460DF5727DBDE8F087384681
:10116000216CFFF775FF03A800F086FB406C704709
:10117000F0B5CB6B0B640E1D0F4604460FCEF9B0D5
:1011800001AD0FC50FCE0FC50FCE0FC596E80F00EE
:101190004FF0FF3685E80F00009606E023696A46A7
:1011A000214698470828054608D110992046FFF7A0
:1011B000CBFE0028F2D0092079B0F0BD6846FFF7D9
:1011C00013FF062DF7D139462046FFF743FF00BF36
:1011D00030B4DD6BC160826119461D64002230BCF1
:1011E00058E700BF70B5C66843690B6426B1012299
:1011F000FFF750FF07F09BF903690A4604460D46C6
:10120000014602209847072807D0082803D129461D
:101210002046FFF71FFF07F08AF93046296CFFF7D9
:1012200017FF281D00F028FBC2681AB1CA6B0A64B8
:1012300000222FE79CE700BF704700BF836813B10F
:10124000014601201847704700B5042907D8DFE898
:1012500001F00309060909000BB90F2A05D902207C
:101260005DF804FB01205DF804FB00EB82021846E8
:101270005368019A13605DF804FB00BF10B584B099
:10128000002303AC0A4600941946FFF7DDFF0398DC
:1012900004B010BD00B5042907D8DFE801F0030948
:1012A000060909000BB90F2A05D902205DF804FBD5
:1012B00001205DF804FB019900EB8202096851608E
:1012C00018465DF804FB00BF10B584B004AC0023E1
:1012D00044F8042D0A4600941946FFF7DBFF04B0DA
:1012E00010BD00BFF0B5D36B1364151D07460E4645
:1012F0000FCDADF50F7D17AC0FC40FCD0FC40FCDC3
:101300000FC495E80F004FF0FF3584E80F001695E5
:1013100010E016A8FFF7D8FF314616A8B84716AA5E
:10132000694678B9049B08209847052804460AD0E6
:10133000092807D026996846FFF706FE6A460C2161
:101340000028E6D0092416A8FFF74EFE20460DF52A
:101350000F7DF0BD2DE9F04F0D46C96C8BB00C1D13
:10136000096807919146089400F0030B1E46002B74
:1013700060D10902032307918DF825608DF8243090
:101380002B6DBBF1020F08BFAC6B13F0010340D112
:10139000019300F008030393D4F80080B8F1000F24
:1013A00039D0022E43D0B4F8008067880434AB6C87
:1013B00027F0010A0F2148469A44FFF75FFF824554
:1013C00033D828F001039A4450452CBF0020012057
:1013D0007F0007F0020708F0010847EA0807012F1D
:1013E0003ED035D3022F1CD1236823F00042029255
:1013F000BBF1000F76D128B1039900297ED0002AD5
:1014000000F0A680002B77DB029B013304EB830402
:10141000C2E700230193022E3EDDFFF717FE0028EE
:1014200040D009200BB0BDE8F08F0020D0E76768FE
:101430000834BCE7022BA3DC0B0CDAB209048DF8EC
:101440002530022304EB820407918DF8243097E7BE
:10145000BBF1000F02D0002840F0BD8004349BE7B0
:10146000BBF1000F25D1A8B194E80C00991C4FEAFC
:10147000D272D6D005F158010133069100F0A38055
:10148000201DFFF7DDFD06AB01462846AFF30080C7
:10149000002877D108347FE707A9484600F0EEFA24
:1014A0000028BED1019B002B5CD108200BB0BDE809
:1014B000F08F0D2148462F6AFFF7E0FE8742E9D101
:1014C000AB6A9C42E6D12046FFF7F0FC0F210246B2
:1014D0004846FFF7F9FE48462A460021FFF7F4FE8A
:1014E00007209FE70D2148462F6AFFF7C7FE874276
:1014F00058D02368002B87DA043485E7029B3BB37E
:1015000005F15803271DCDF810B0DDF80C80DDF88B
:1015100008A00596A3461C4602E0B245B04616D088
:1015200038460694FFF78CFD06AB0146002228469C
:10153000AFF3008008F1010604370028EDD0029BCC
:10154000059E43455C46DDF810B0D2D100E05C4614
:1015500048460D21FFF792FE069B2862AC626B6243
:1015600006205FE70F214846FFF788FE0E2102465E
:101570004846FFF7A9FE4846294A0F21FFF7A4FE77
:1015800007204FE707460D214846FFF777FE022F59
:1015900028621DD12B46069A43F82C2F6B62AC6251
:1015A00006203FE7AB6A9C42A3D104220027A31880
:1015B0000299A962EF622A636B632368BB421DDB59
:1015C0000123019320E748460D21FFF757FE2862CB
:1015D000069B6B62E3E72046FFF768FC043406468F
:1015E000AC632846AFF3008000283FF41AAF4846AA
:1015F00032460F21FFF768FE072013E70846013047
:1016000004EB8000FFF752FC0F2102464846FFF72B
:101610005BFE48462A463946FFF756FE072001E79B
:1016200000000000002395E6012393E6022391E6E3
:10163000F0B50446C5B004290DD8DFE801F0530326
:101640000C310F00012B4FEA124695B262D172198C
:10165000102A40F29B80022045B0F0BD002BFAD149
:10166000102AF8D82368D80600F1C68022AE30468A
:10167000019200F073F9A06B019A0023012505FA8D
:1016800003F1114203D0016846F8231004300133FE
:10169000042BF4D1A063304600F056F90020DBE7BC
:1016A000032BD8D1150C97B2EB19102BD3D8236884
:1016B0001E0700F1B58022AE304600F023F9ED00A0
:1016C000A36B4FB1043D711903EBC70053F8042B12
:1016D00041F8042F8342F9D13046A36300F0F0F8BB
:1016E0000020B9E7002BB6D1A56B97B2201D0126CB
:1016F00006FA03F1394203F1010302D029680160BF
:101700000435102B00F10400F2D112F400503BD14B
:10171000A563A1E7052B9ED17719202F9BD80F2E0B
:1017200066D92F46002D3AD12A460027002AA06B01
:1017300072DD00EBC202014644A800EBC6008C3803
:1017400051F8045B40F8045F9142F9D1084697B123
:10175000102E324644A938BF102201EBC202A2F576
:10176000C4727900043A00EB810150F8045B42F83E
:10177000045F8842F9D1012B48D00F2EA16333D9E1
:1017800017B102A800F094F8002065E70F2E3FF68D
:1017900062AF00272268D10717D4002F60D02268DB
:1017A000510745D4012B4DD00F2E06D822A8019306
:1017B00000F07AF8019B002FB6D002A8019300F048
:1017C0007BF8019BC6F11002B0E722F00101052B66
:1017D0002160019320463BD022F0030240F8482BC1
:1017E00000F05AF8019BD8E722A800F059F8C7E7A3
:1017F000102FCED9103FCDE723F01003236004F55E
:10180000E870019200F0AAF8019A2FE70431A16371
:1018100022A800F03DF8B7E7002F99D10146AAE7CA
:1018200023F00803236004F5A87000F06BF842E78A
:10183000204622F0040240F8D02B019300F03CF83F
:10184000019BAFE722A8019300F026F8019BB9E7BE
:1018500041F0020140F8481B00F026F8019B9CE78C
:10186000012B03D00F2E3FF65FAF9FE722A8019315
:1018700000F012F8019B57E700F1340191E83800BD
:101880009C46A6464CF8045D90E8FF0FE54600BD77
:1018900090EC210B704700BF80EC210B704700BF1C
:1018A00090EC200B704700BF80EC200B704700BF0E
:1018B000D0EC200B704700BFC0EC200B704700BF7E
:1018C000F0EC0201F0EC0211F0EC0221F0EC02313C
:1018D000F0EC0241F0EC0251F0EC0261F0EC02712C
:1018E000F0EC0281F0EC0291F0EC02A1F0EC02B11C
:1018F000F0EC02C1F0EC02D1F0EC02E1F0EC02F10C
:10190000704700BFE0EC0201E0EC0211E0EC0221C4
:10191000E0EC0231E0EC0241E0EC0251E0EC02616B
:10192000E0EC0271E0EC0281E0EC0291E0EC02A15B
:10193000E0EC02B1E0EC02C1E0EC02D1E0EC02E14B
:10194000E0EC02F1704700BFB0FC0181B0FC0191F6
:10195000B0FC01A1B0FC01B1704700BFA0FC018147
:10196000A0FC0191A0FC01A1A0FC01B1704700BF47
:10197000EC4600B52DE900502DE9FF1F4FF00003A4
:101980002DE90C0001A9FFF7F3FBDDF840E012B0F0
:10199000704700BFEC4600B52DE900502DE9FF1F50
:1019A0004FF000032DE90C0001A9FFF71BFCDDF847
:1019B00040E012B0704700BFEC4600B52DE9005082
:1019C0002DE9FF1F4FF000032DE90C0001A9FFF7DF
:1019D0002BFCDDF840E012B0704700BFEC4600B5CC
:1019E0002DE900502DE9FF1F4FF000032DE90C00F9
:1019F00001ABFFF7EDFBDDF840E012B0704700BF30
:101A0000EC4600B52DE900502DE9FF1F4FF0000313
:101A10002DE90C0001AAFFF765FCDDF840E012B0EB
:101A2000704700BF027A1AB9437A43B9B0207047B1
:101A30000368013A02721A020260180E7047426887
:101A4000013B10B4437213680321141D01721A0282
:101A5000446002605DF8044B180E704700B585B015
:101A600003AA0023009219460C22FFF7EDFB03980E
:101A700005B05DF804FB00BFF0E700BF2DE9F043BF
:101A8000064685B00F464FF000083846FFF7CAFFFC
:101A9000B028044623D0050627D400230DF10C09F5
:101AA000194685000D22CDF800903046FFF7CCFB9B
:101AB000EDB2039BCDF80090600605F104054CBF24
:101AC0005D1BED18002319460D2230460395FFF7E4
:101AD000E1FB3846FFF7A6FFB0280446DBD1B8F19A
:101AE000000F00F0958000201CE000F0F003802B38
:101AF0005DD0902B19D0A02B2CD0B02B3FD0C02B79
:101B00006CD000F0F803D02B0BD100F007020132AB
:101B100042F40022052301213046FFF789FD002809
:101B2000B3D0092005B0BDE8F08300F00D030D2B04
:101B3000F7D003AD002300F00F02194600953046A0
:101B4000FFF782FB0023009519460D223046FFF770
:101B5000A1FB9AE7C24302F007034FF47F621A41E8
:101B6000010702F47F624FF0000348BF42F4804255
:101B700019463046FFF75CFD0028D2D185E7B12831
:101B800057D0B22868D0B32800F0958000F0FC034D
:101B9000B42BC6D000F007020132012342F4002228
:101BA00019463046FFF744FD0028BAD16DE73846A4
:101BB000FFF738FF24020443B4F5004FB1D02401ED
:101BC0000023A2B219463046FFF732FD0028A8D103
:101BD00014F4004F18BF4FF0010856E7C6287DD017
:101BE000C72800F0868000F0F803C02B00F0948036
:101BF000C82800F09F80C92893D13846FFF712FF0C
:101C0000020300F00F0002F470220130024381E76A
:101C100003AC43460E22414600943046FFF714FBC6
:101C20000094304643460F224146FFF733FB4046BF
:101C300078E73846FFF7F6FE00283FF472AF10F061
:101C4000F0037FF46EAF024619463046FFF7F0FC12
:101C500000287FF466AF18E700230DF10C090D2270
:101C60001946CDF800903046FFF7EEFA3846FFF7F8
:101C7000D9FE02064FF002040CD5039B00F07F0052
:101C8000A040034438460393FFF7CCFE030604F15B
:101C90000704F2D4039BCDF8009000F07F02A2402D
:101CA00003F501740023144419460D2230460394B1
:101CB000FFF7F0FAE9E63846FFF7B4FE010300F05B
:101CC0000F0001F47021421C01230A4330461946DB
:101CD000FFF7AEFC00287FF424AFD6E63846FFF7C6
:101CE000A1FE010300F00F0001F47021421C032348
:101CF000EBE73846FFF796FE00283FF412AF10F0EE
:101D0000F0037FF40EAF024604213046FFF790FC4B
:101D100000287FF406AFB8E600F00F02013203237B
:101D200042F4202219463046FFF782FC00287FF457
:101D3000F8AEAAE63846FFF775FE00F0F00200F0B4
:101D40000F031032013343EA0232E3E610B5C36CED
:101D500084B05A6803208DF80C00DC798DF80D40B2
:101D600012020833084601A901920293FFF786FE8A
:101D700004B010BD08B5FFF77FFE806C08BD00BF42
:101D800008B5FFF779FEC06CC37900EB830008301B
:101D900008BD00BF08B506F0CAFB00BF08B5FFF7D5
:101DA000F9FF00BF704700BF38B50E4A0E4B05461D
:101DB00018784FF47A73B3FBF0F31068B0FBF3F0CC
:101DC00000F0FAFD044658B90F2D09D802462946FD
:101DD0004FF0FF3000F0B0FD044B20461D6038BDD1
:101DE000012038BD08000020000000200400002071
:101DF000074A08B5136843F010031360032000F08E
:101E000089FD0020FFF7D0FF02F0A6FC002008BDEE
:101E100000200240034A044B11681B780B441360F6
:101E2000704700BF1C07002000000020014B18680D
:101E3000704700BF1C07002038B503680446986847
:101E400000F00300012801D0002038BD1A68D20735
:101E5000FAD59A6802F00D02012A1BD19A6842F065
:101E600002029A6003221A60FFF7E0FF054623682A
:101E70009B68DB07E8D5FFF7D9FF401B0228F6D99E
:101E8000636C43F010036364A36C43F00103A36429
:101E9000012038BD636C43F010036364A36C43F00E
:101EA0000103A36438BD000070B596B00023009311
:101EB0000446002800F0E380426CD50600F1CC8097
:101EC000436C002B00F09280002023689A68D200B7
:101ED00002D59B689B000AD5636C23F0120343F084
:101EE00010036364A36C43F00103A3640120636CDB
:101EF000DE0600F1BE80002840F0BB8023689968B0
:101F000011F0040140F0B580626C22F4817242F05D
:101F10000202B3F1A04F62640CBF5A4A4FF0A042D4
:101F200001929A6802F00302012A02D11A68D507C9
:101F300010D4019A3AB1956805F00305012D02D13C
:101F40001268D20706D4504D6668AA6822F440325F
:101F50003243AA60A26BA668E569012AE26842EAF8
:101F6000060218BF4FF4805142EA45320A43616AC3
:101F7000012907D1002D71D1A16A013942EA4142FC
:101F800042F48032E16A01291EBF256B29430A43CE
:101F9000996811F00C0F0BD1D968A56921F4804123
:101FA00021F00201D960616B490041EA85310A43A1
:101FB000DD68364929400A43DA602269012A05BFF3
:101FC000196B226A1A6B02F1FF3206BF21F00F0172
:101FD0000A4322F00F021A630023A364636C23F008
:101FE000030343F00103636416B070BD83640365AB
:101FF000C36480F8403002F04BF823689B68D80037
:102000003FF562AF2046FFF717FF626CD1063FF540
:102010005CAF00287FF459AF636C23F4885323F03E
:10202000020343F00203636423689A6822F040527B
:102030009A609A6842F080529A60154B154A1B6864
:10204000B3FBF2F20A2353430093009B002B3FF4AF
:102050003BAF009B013BF7E7184648E7616C21F076
:10206000220141F020016164A16C41F00101A164F1
:1020700088E7636C23F0120343F0100363640120CC
:10208000B2E700BF000100500003005007C0F0FF9E
:102090000800002040420F00F0B597B000230093E5
:1020A00090F84030012B054600F051812B68CE6836
:1020B0009A680120540785F8400000F14381486880
:1020C0000C6804284FF0060231D842431F6B1F20D2
:1020D000904027EA000004FA02F202431A639A6869
:1020E00012F00C0F62D1092C4FEA44028F6846D9D6
:1020F000224498691E3A4FF0070E0EFA02FE20EABB
:102100000E0007FA02F202439A61DA68C2F3C10EC6
:102110004A694FEA4E0E02FA0EFE0A69013A4FEA88
:10212000846C032A73D8DFE802F037515C67092812
:102130000BD842435F6B1E3A1F20904027EA0000F5
:1021400004FA02F202435A63C9E70E280BD842434D
:102150009F6B3C3A1F20904027EA000004FA02F2ED
:1021600002439A63BBE74243DF6B5A3A1F20904019
:1021700027EA000004FA02F20243DA63AFE7586983
:1021800022444FF0070E0EFA02FE20EA0E0007FA74
:1021900002F202435A61B8E71A6E7A4F174047EAD3
:1021A0000C0242F0004242EA0E021A669A6802F0FD
:1021B0000302012A40F0CD801A68D00740F1C9809F
:1021C0000020002385F8403017B0F0BD5A6E6D4FE7
:1021D000174047EA0C0242F0004242EA0E025A66F9
:1021E000E4E79A6E6748104040EA0C0242F0004271
:1021F00042EA0E029A66D9E7D86E624A024042EA83
:102200000C0242F0004242EA0E02DA66CEE71A6E93
:1022100002F0F842624502BF1A6E22F000421A66CE
:102220005A6E02F0F842944502BF5A6E22F0004204
:102230005A669A6E02F0F842944502BF9A6E22F0F6
:1022400000429A66DA6E02F0F8429445AED1DA6E38
:1022500022F00042D9E7D3F8B0200121A14022EAC0
:102260000102C3F8B020102C43D1474A926812F4FF
:10227000000FA5D1B3F1A04F0CBF444A4FF0A042CC
:1022800001929A6802F00302012A02D11A68D1076A
:1022900052D4019A3AB1916801F00301012902D1A7
:1022A0001268D20748D4102C32D1B3F1A04F87D195
:1022B000354A936843F400039360354B354A1B68F5
:1022C000B3FBF2F20A2353430093009B002B3FF42D
:1022D00077AF009B013BF7E7601C596900EB4000BA
:1022E0000722824021EA020106FA00F20A435A61FB
:1022F000B9E7112C04D1244A926812F0807FB8E724
:10230000122C7FF45DAF204A926812F4800FB0E780
:10231000112C09D1B3F1A04F7FF452AF1A4A936840
:1023200043F0807393604BE7122C7FF449AF164A59
:10233000936843F48003F5E76B6C43F020036B6410
:1023400001203EE76B6C43F020036B6439E7022009
:102350003AE7012E7FF47FAFD3F8B020A6401643B2
:10236000092CC3F8B0608E68B6D904EB44029969B1
:102370001B3A0720904021EA000106FA02F20A43C4
:102380009A6170E700F0FF830003005000010050E5
:102390000800002040420F00F0B5034697B01C68CB
:1023A0000868B4F1A04F0CBF334A4FF0A04201922D
:1023B000019A002A49D093F84050012D47D00125B9
:1023C00083F84050A5686F0735D495686E0732D4FE
:1023D0002A4EA0B14D68D6F808E02F465D6B47EA5B
:1023E00045352EF460473D43B560A56805F003050B
:1023F000012D2ED12468E5072BD5002020E0B168FF
:1024000021F46041B160A16801F00301012902D10A
:102410002168C907F1D4916801F00301012902D1B3
:102420001268D207E9D415498A6822F4716222F051
:102430000F028A60E1E75A6C42F020025A640120E0
:10244000002283F8402017B0F0BD0120FBE70220F6
:10245000F9E7946804F00304012C02D11268D40750
:10246000CBD4064C8968A26822F47162084322F03A
:102470000F021043A060C0E70001005000030050AD
:1024800038B5044600286ED090F820300BB901F022
:10249000A1FE2268136823F002031360FFF7C6FC55
:1024A000054623685A68910751D41A6842F0010220
:1024B0001A60FFF7BBFC054623685A68D20754D55B
:1024C000227E012A1A680CBF42F0800222F08002AC
:1024D0001A60627E012A1A680CBF42F0400222F0A4
:1024E00040021A60A27E012A1A680CBF42F0200244
:1024F00022F020021A60E27E012A1A680CBF22F044
:10250000100242F010021A60227F012A1A680CBFE2
:1025100042F0080222F008021A60627F012A1A685B
:102520000CBF42F0040222F004021A60E168A268C3
:102530000A4321690A4361690A43616801390A4310
:10254000DA6100200123606284F8203038BDFFF793
:102550006DFC401B0A28A4D9636A43F4003363620C
:10256000052384F82030012038BDFFF75FFC401BB5
:102570000A28A1D9F0E7F0B590F820500668013D8F
:10258000012DB46840D814F0E05F39D0C4F3016481
:10259000032C4FF0010505D1436A43F40003436265
:1025A0000120F0BDA5401D608868CF6804F11803C4
:1025B00008BB086847EA40501B012401F05033195A
:1025C0000869097DC3F88401012902BFD3F8841189
:1025D00041F48071C3F8841134445168C4F88C11FB
:1025E0001268C4F88821D3F8802142F00102C3F8B0
:1025F00080210020F0BD4D68384340EAC500DBE78C
:10260000436A43F40013CAE7436A43F48023C6E7EE
:10261000F0B590F82040013C012C6BD8066841B918
:10262000F468A40707D1436A43F40013436201200E
:10263000F0BD3469F5E70C013519D5F8B07107F034
:1026400004079760002F4BD1D5F8B0717F0D17604C
:10265000D5F8B071C7F34007D760D5F8B47107F06B
:102660000F071761D5F8B471D5F8B4512644C7F3F4
:1026700007272D0C97615561D6F8B8211A700268AA
:102680002244D2F8B821120A5A7002682244D2F8C1
:10269000B821120C9A7002682244D2F8B821120EA6
:1026A000DA7002682244D2F8BC211A71026822440E
:1026B000D2F8BC21120A5A7102682244D2F8BC2115
:1026C000120C9A7102681444D4F8BC21120EDA710B
:1026D000036851B9DA6842F02002DA600020F0BDE8
:1026E000D5F8B071FF085760B2E71A6942F02002CE
:1026F0001A61F3E7436A43F4802397E77047704712
:102700007047704770477047704770477047704711
:10271000704770472DE9F84F03685E69D3F804905D
:102720009F68D3F80CB0D3F810A0D3F8188016F037
:102730000104054622D017F0010407D00122B90791
:102740009A6040F1A380FFF7D9FF0024FB0509D56B
:102750002B684FF48072B8059A6040F1A580284636
:10276000FFF7CDFFFB0309D52B684FF48032B80388
:102770009A6040F1A7802846FFF7C2FF330707D5CC
:102780001BF0100F1FBF2B68102244F40074DA6096
:10279000770708D51BF0080F05D02B680822DA60F0
:1027A0002846FFF7B1FFB00706D52B68DB6899070D
:1027B00002D0284601F0AAFA720607D51AF0100FC7
:1027C0001FBF2B68102244F480641A61B30608D539
:1027D0001AF0080F05D02B6808221A612846FFF767
:1027E00095FFF70606D52B681B69980702D0284687
:1027F000FFF78BFFB10308D519F0100F05D02B6838
:1028000010225A602846FFF782FFF20308D519F01C
:10281000080F05D02B6808225A602846FFF778FF7A
:1028200033042AD519F0040F2A6824D0F70504D5FB
:1028300018F0010F18BF44F00104B00504D518F0DA
:10284000020F18BF44F00204710504D518F0040FFC
:1028500018BF44F0040433050DD518F070030AD0F6
:10286000302B4CD03CD8102B43D0202B44D0936934
:1028700023F070039361042353602CB16B6A1C43F3
:102880006C622846FFF745FFBDE8F88F7A0705D44C
:1028900017F0080405D1FFF734FF57E74FF4006441
:1028A00054E74FF4805451E7790502D544F40054BD
:1028B00058E73A0502D544F4804453E72846FFF729
:1028C00021FF4FE7790302D544F4004456E73A0369
:1028D00002D544F4803451E72846FFF714FF4DE752
:1028E000502B0FD0602B10D0402BC0D144F04004AF
:1028F000BDE744F00804BAE744F01004B7E744F039
:102900002004B4E744F08004B1E744F48074AEE7F7
:10291000406A7047074AD36823F4E0631B041B0C2A
:1029200043F0BF63000243F4003300F4E06003436C
:10293000D360704700ED00E0174B30B5DC68C4F39E
:102940000224C4F10703251D042B28BF0423062DF0
:102950004FF0010505FA03F303F1FF338CBF033C8D
:1029600000241940A14005FA04F4013C224000284B
:1029700042EA01024FEA0212AFBF00F1604000F0EC
:102980000F00064BD2B2A5BF00F56140D2B21A5477
:1029900080F8002330BD00BF00ED00E014ED00E042
:1029A0004209012300F01F0003FA00F0014B43F835
:1029B0002200704700E100E00138B0F1807F0AD2C8
:1029C000064B074A5860F02182F8231000200722A6
:1029D00098601A6070470120704700BF10E000E067
:1029E00000ED00E010B530B384684368016823430C
:1029F000C4680A6823430469234344692343846900
:102A00002343C46922F47F5222F03002234313434C
:102A10000B600A4B14220B44B3FBF2F39B000364DC
:102A2000074BC36301220023836380F8212080F8D1
:102A30002030184610BD012010BD00BFF8FFFDBFBB
:102A400000000240C16B026C036870B40E681D6820
:102A50000424944026420ED015F0040F0BD01A68BF
:102A600092065EBF1A6822F004021A60C36A4C60C4
:102A700073B370BC184702249440264212D015F05C
:102A8000020F0FD01A68950606D41A6822F00A02BF
:102A90001A60012380F8213000234C6080F8203038
:102AA000836AE5E708249440344211D02C070FD5FF
:102AB0001C6824F00E041C60012303FA02F24A6031
:102AC000836380F82130002380F82030036BCFE748
:102AD00070BC70472DE9F04F85B00B68DFF864815A
:102AE000564A01934FF00F090023019CDC4002D1AC
:102AF00005B0BDE8F08F012404FA03FA019C14EA42
:102B00000A0500F093804C6824F0100BBBF1020F13
:102B100011D1DF0800EB870703F0070E3E6A4FEA8A
:102B20008E0E09FA0EFC26EA0C0C0E6906FA0EF659
:102B300046EA0C063E624FEA430C0327066807FA92
:102B40000CF7FF4304F0030E3E400EFA0CFE0BF1AF
:102B5000FF3B4EEA0606BBF1010F066011D88668FE
:102B600006EA070BCE6806FA0CFE4EEA0B068660F4
:102B7000466826EA0A0AC4F300169E4046EA0A0698
:102B80004660C66837408E6806FA0CF63743E600A2
:102B9000C7604BD5D8F8186046F00106C8F8186031
:102BA000D8F8186023F0030707F1804706F0010604
:102BB00007F58037039603F0030E039EBE684FEAC5
:102BC0008E0E09FA0EFCB0F1904F26EA0C0C2FD0B5
:102BD0001B4EB0422ED006F58066B0422CD006F5D2
:102BE0008066B04214BF0526032606FA0EF646EAB2
:102BF0000C06BE601668EF4314F4803F0CBF3E40E5
:102C00002E431660566814F4003F0CBF3E402E431E
:102C10005660966814F4801F0CBF3E402E439660A9
:102C2000D668A40254BF3E402E43D66001335CE711
:102C30000026DAE70126D8E70226D6E7000401409D
:102C400000040048001002400369194214BF01202B
:102C5000002070470AB181617047816270470000AF
:102C60002DE9F347054618B9012002B0BDE8F08709
:102C70000368DA0711D42B689B0700F185802B6865
:102C80001C0700F1F6802B68580700F13F81EA69C4
:102C9000002A40F0D6810020E7E7BA4C636803F0D1
:102CA0000C03042B07D0636803F00C03082B16D128
:102CB0006368DF0313D54FF4003393FAA3F221685E
:102CC00093FAA3F3B3FA83F303F01F03012202FA8A
:102CD00003F30B42CFD06B68002BCCD1C4E76A68FA
:102CE000B2F5803F25D1236843F480332360E36A43
:102CF000A96823F00F030B43E36252B3FFF796F882
:102D00004FF400368046012796FAA6F3226896FA19
:102D1000A6F3B3FA83F303F01F0307FA03F3134296
:102D2000A9D1FFF783F8A0EB08006428ECD90320B1
:102D30009BE7236832B923F480332360236823F4AC
:102D40008023D3E7B2F5A02FF5D143F4802323608D
:102D5000C9E7FFF76BF84FF400368046012796FA73
:102D6000A6F3226896FAA6F3B3FA83F303F01F03DF
:102D700007FA03F313423FF47EAFFFF757F8A0EBD7
:102D800008006428EBD9D2E77E4C636813F00C0F7F
:102D900007D0636803F00C03082B22D16368DE03BD
:102DA0001FD4022393FAA3F2216893FAA3F3B3FA90
:102DB00083F303F01F03012202FA03F30B4203D053
:102DC0002B6993427FF450AF2168F82393FAA3F361
:102DD000B3FA83F26B69934021F0F8021343236046
:102DE0004DE72A6901260AB396FAA6F3B3FA83F3EC
:102DF00003F1845303F584139B0002271E60FFF741
:102E000015F8804697FAA7F3226897FAA7F3B3FA62
:102E100083F303F01F0306FA03F31342D4D1FFF741
:102E200005F8A0EB08000228ECD980E796FAA6F393
:102E3000B3FA83F303F1845303F584139B00022751
:102E40001A60FEF7F3FF804697FAA7F3226897FA15
:102E5000A7F3B3FA83F303F01F0306FA03F3134255
:102E60003FF40DAFFEF7E2FFA0EB08000228EBD91C
:102E70005DE7AA69434E444901241AB394FAA4F3C6
:102E8000B3FA83F30B449B0002271C60FEF7CEFFCE
:102E9000804697FAA7F397FAA7F397FAA7F3726A0F
:102EA00097FAA7F3B3FA83F303F01F0304FA03F3CB
:102EB00013427FF4E8AEFEF7B9FFA0EB080002284A
:102EC000E7D934E794FAA4F3B3FA83F30B449B00F5
:102ED00002271A60FEF7AAFF804697FAA7F397FA2F
:102EE000A7F397FAA7F3726A97FAA7F3B3FA83F3F3
:102EF00003F01F0304FA03F313423FF4C4AEFEF7DA
:102F000095FFA0EB08000228E7D910E71D4CE36904
:102F1000D90034D4E36943F08053E361E36903F0FB
:102F200080530193019B0126184F3B68DA052FD58A
:102F3000EB68012B3DD1236A43F001032362FEF7C6
:102F400075FF02278246B9464FF0010897FAA7F3AA
:102F500097FAA7F3002B6CD0226A99FAA9F3B3FA77
:102F600083F303F01F0308FA03F3134258D0002E33
:102F70003FF48DAEE36923F08053E36187E60026DA
:102F8000D2E700BF00100240208190100070004086
:102F90003B6843F480733B60FEF748FF80463B6824
:102FA000DB05C5D4FEF742FFA0EB08006428F6D984
:102FB000BDE63BBB236A23F001032362236A23F0AF
:102FC00004032362FEF732FF02278246B9464FF020
:102FD000010897FAA7F397FAA7F373B3226A99FA4D
:102FE000A9F3B3FA83F303F01F0308FA03F31342C0
:102FF000BDD0FEF71BFF41F28833A0EB0A009842D8
:10300000E7D994E6052B236A03D143F00403236236
:1030100091E723F001032362236A23F004038DE781
:10302000FEF704FF41F28833A0EB0A0098428DD9E5
:103030007DE697FAA7F3626A8FE797FAA7F3626AC9
:10304000CDE7414C636803F00C03082B3FF40CAE52
:10305000022A4FF0807352D193FAA3F3B3FA83F3A9
:1030600003F1845303F584139B0000221A60FEF7DA
:10307000DDFE4FF000778046012697FAA7F322681D
:1030800097FAA7F3B3FA83F303F01F0306FA03F3E7
:1030900013422DD162686B6A296A22F474120B43C1
:1030A000134363604FF0807393FAA3F3B3FA83F38F
:1030B00003F1845303F584139B004FF000751E60E9
:1030C000FEF7B4FE0126074695FAA5F3226895FAA5
:1030D000A5F3B3FA83F303F01F0306FA03F31342D5
:1030E0007FF4D9ADFEF7A2FEC01B0228ECD91EE684
:1030F000FEF79CFEA0EB08000228BED917E693FA63
:10310000A3F3B3FA83F303F1845303F584139B0011
:1031100000221A60FEF78AFE4FF00075074601266E
:1031200095FAA5F3226895FAA5F3B3FA83F303F0B1
:103130001F0306FA03F313423FF4ADADFEF776FE2C
:10314000C01B0228ECD9F2E50010024010B5134C68
:10315000616801F00C03082B1ED14FF4701393FA31
:10316000A3F301F47012B3FA83F322FA03F30C4AC7
:10317000D05CE36A0F2292FAA2F2B2FA82F203F072
:103180000F03D340074AD25CCB034ABF064B074B21
:10319000B3FBF2F3584310BD034810BD00100240CA
:1031A0004E8600085E86000800127A0000093D0085
:1031B0002DE9F0410D46044610B90120BDE8F0812B
:1031C0004C4A136803F007038B422ED32268910701
:1031D00036D4D2073CD4474A136803F007039D4214
:1031E00075D32268444D12F0040F7CD1130706D525
:1031F0006B68226923F4605343EAC2036B60FFF7F4
:10320000A5FF6B68F02292FAA2F2B2FA82F203F002
:10321000F003D340394AD35CD840394B18600020C2
:10322000FEF7C2FD0020BDE8F081136823F007031C
:103230000B431360136803F007039942BDD1C5E740
:103240002D49A0684B6823F0F00303434B60C0E7AF
:103250006268294E012A27D14FF4003393FAA3F173
:10326000316893FAA3F3B3FA83F303F01F0302FA6E
:1032700003F30B42A1D0736823F003031A43726077
:10328000FEF7D4FD41F2883807467368626803F0A0
:103290000C03B3EB820F9ED0FEF7C8FDC01B404568
:1032A000F3D90320BDE8F081022A0CBF4FF0007370
:1032B000022393FAA3F1306893FAA3F3B3FA83F3EA
:1032C00003F01F03012101FA03F30342D2E713685D
:1032D00023F007032B431360136803F007039D4299
:1032E0007FF46BAF7DE76B68E16823F4E0630B4329
:1032F0006B607BE7002002400010024072860008ED
:1033000008000020084B4FF4E0625B6892FAA2F2DA
:10331000B2FA82F203F4E063D340044AD35C044A75
:103320001068D840704700BF001002408286000835
:1033300008000020084B4FF460525B6892FAA2F23A
:10334000B2FA82F203F46053D340044AD35C044AD5
:103350001068D840704700BF001002408286000805
:103360000800002003682DE9F3470546D80320D55F
:10337000504CE369D90044D4E36943F08053E361DE
:10338000E36903F080530193019B01264A4F3B6898
:10339000DA0538D5236A13F4407348D1236A6A6882
:1033A00023F44073134323621EB1E36923F0805377
:1033B000E3612868C10706D53E4AA968136B23F06C
:1033C00003030B431363820606D53A4AE968136B7D
:1033D00023F010030B431363030606D5354A29690E
:1033E000D36A23F4F8730B43D36210F480501BD0DC
:1033F000304A6969136B23F480730B431363002015
:1034000012E00026C2E73B6843F480733B60FEF79E
:103410000DFD80463B68DB05BCD4FEF707FDA0EB45
:1034200008006428F6D9032002B0BDE8F0876A6876
:1034300002F440729342B1D0216A4FF4803321F4F8
:10344000407093FAA3F2DFF874E0B2FA82F27244A9
:1034500092000127176093FAA3F3B3FA83F373443E
:103460009B0000221A602062C80797D5FEF7DEFC99
:103470004FF002088246C14698FAA8F398FAA8F3DA
:103480009BB1226A99FAA9F3B3FA83F303F01F03FD
:1034900007FA03F3134281D1FEF7C8FC41F28833E7
:1034A000A0EB0A009842E7D9BDE798FAA8F3626A50
:1034B000E8E700BF0010024000700040008190105B
:1034C0000368DA6842F00102DA601A6842F0010229
:1034D0001A60002070477047704770477047036854
:1034E0001A69910710B504460FD5DA6892070CD512
:1034F0006FF002021A619B6901229907027700F0BE
:103500008580FFF7E9FF0023237723681A695207B4
:1035100010D5DA6850070DD56FF004021A619B6967
:10352000022213F4407F2277204675D0FFF7D4FFA4
:103530000023237723681A6911070FD5DA68120769
:103540000CD56FF008021A61DB6904229B07227711
:10355000204667D0FFF7C0FF0023237723681A694E
:10356000D00610D5DA68D1060DD56FF010021A61B9
:10357000DB69082213F4407F2277204658D0FFF7FA
:10358000ABFF0023237723681A69D20708D5DA68CE
:10359000D00705D56FF001021A61204600F0B2FC99
:1035A00023681A69110608D5DA68120605D56FF086
:1035B00080021A61204600F0CAF823681A69D00513
:1035C00008D5DA68110605D56FF480721A612046B5
:1035D00000F0BEF823681A69520608D5DA6850066A
:1035E00005D56FF040021A612046FFF777FF236888
:1035F0001A69910622D5DA6892061FD56FF020026B
:1036000020461A61BDE8104000F0A0B8FFF763FF44
:103610002046FFF762FF76E7FFF75DFF2046FFF7E2
:103620005CFF85E7FFF757FF2046FFF756FF93E75C
:10363000FFF751FF2046FFF750FFA2E710BD000043
:10364000214A0368904210B505D0B0F1804F02D0F6
:103650001E4CA0420CD14C6823F07003904243EA08
:10366000040310D0B0F1804F0DD0184A90420AD018
:10367000174A904207D002F58062904203D002F5CB
:103680008062904203D1CA6823F4407313434A69AD
:1036900023F08003134303608B68C3620B6883626B
:1036A000094B98420BD003F5A053984207D003F57D
:1036B0008063984203D003F58063984201D10B697F
:1036C00003630123436110BD002C0140000400404E
:1036D0000040014010B50446A0B190F83D3003F021
:1036E000FF021BB980F83C2001F018F9022384F88E
:1036F0003D302068211DFFF7A3FF012384F83D30F2
:10370000002010BD012010BD90F83C30012B30B5D9
:1037100018D002680C4D53689468AA4202BF4D68E5
:1037200023F470032B430D68896823F070032B4347
:1037300024F08004536021430023916080F83C30E2
:10374000184630BD022030BD002C01407047704744
:103750007047000038B5044605682169A368C2694E
:1037600028680B4361690B434949134301400B43EC
:103770002B606B68E168206A23F440530B436B6055
:10378000A968A36921F4306103430B43AB60414B4B
:103790009D4212D103F558433F491B6B03F00303CD
:1037A000B2F5004FCB5C3BD1082B36D8DFE803F0F5
:1037B0000F2124352D3535353000384B9D4203D04F
:1037C00003F580639D425ED1B2F5004F31D1FFF722
:1037D00099FD61684A0802EB4003B3FBF1F39BB229
:1037E000002023F00F022168C3F342031343CB6090
:1037F00038BDFFF79FFDECE76068430803F57403ED
:1038000003F51053B3FBF0F3E9E7FFF79FFCE0E7A4
:103810006068430803F58033F4E701200023E0E704
:10382000082B33D8DFE803F005101B322732323281
:103830002A00FFF767FD636800EB5300B0FBF3F06D
:1038400080B2E860002038BDFFF774FD636800EBCC
:103850005300B0FBF3F00F4B80B2D860F2E7626820
:10386000530803F5F40303F59053B3FBF2F3094A4D
:103870009BB2D360E6E7FFF769FCE7E762685308AD
:1038800003F50043F1E7B2F5004FC6D0012038BD83
:10389000F369FFEF003801406E86000800440040E5
:1038A000436ADA0710B506D50168846A4A6822F4CB
:1038B000003222434A609C0706D50168C46A4A6800
:1038C00022F4803222434A60590706D50168046B0E
:1038D0004A6822F4802222434A601A0706D501680A
:1038E000446B4A6822F4004222434A60DC0606D553
:1038F0000168846B8A6822F4805222438A609906A8
:1039000006D50168C46B8A6822F4005222438A609B
:103910005A060FD50168046C4A6822F480122243CB
:10392000B4F5801F4A6005D14A68446C22F4C00295
:1039300022434A601B0606D50268816C536823F453
:1039400000230B43536010BD2DE9F041069D044652
:103950000F46164698462168CA6937EA02030CBF2B
:1039600001220022B24202D00020BDE8F0816B1C8F
:10397000F2D09DB923681A6822F4D0721A609A684E
:1039800022F001029A60202384F8693084F86A30BA
:10399000002384F868300320BDE8F081FEF746FA82
:1039A000A0EB08008542D6D2E4E773B504460026B2
:1039B000C666FEF73BFA23681B681A07054617D44C
:1039C00023681B685B070AD56FF07E4300930022D3
:1039D0002B464FF480012046FFF7B6FFA0B9202305
:1039E000002084F8693084F8680084F86A300CE0BC
:1039F0006FF07E430093324603464FF40011204699
:103A0000FFF7A2FF0028DBD0032002B070BD10B585
:103A1000044660B390F8693003F0FF021BB980F8E8
:103A2000682000F0B7FF2268242384F86930136807
:103A300023F0010313602046FFF78CFE012816D007
:103A4000636A13B12046FFF72BFF23685A6822F4FC
:103A500090425A609A6822F02A029A601A6842F0EC
:103A6000010220461A60BDE81040FFF79EBF01200A
:103A700010BD000080B483B000AF78607B68B3F9FC
:103A80000230012B07D17B68B3F90030013B0B4AB0
:103A900032F813300CE07B68B3F90230022B07D107
:103AA0007B68B3F90030013B054A32F81330FFE779
:103AB00018460C37BD465DF8047B70479806002019
:103AC000A406002080B586B000AF786007F1080337
:103AD00000221A605A609A607B681B68603318463F
:103AE000FFF7C8FF03463B817B681B6864331846B9
:103AF000FFF7C0FF03467B817B681B68683318466D
:103B0000FFF7B8FF0346BB817B681B686C33184620
:103B1000FFF7B0FF0346FB817B681B6870331846D4
:103B2000FFF7A8FF03463B827B681B687433184687
:103B3000FFF7A0FF03467B8200237B617B69042B98
:103B40004FDC7B681B683033184600F0F1F9034600
:103B5000DAB27B689A757B681B683833184600F0C8
:103B6000E7F90346DBB25B00DAB27B689A757B68E3
:103B70001B684033184600F0DBF90346DBB29B00BC
:103B8000DAB27B689A757B681B684833184600F088
:103B9000CFF90346DBB2DB00DAB27B689A757B684B
:103BA0001B685033184600F0C3F90346DBB21B0113
:103BB000DAB27B689A757B681B685833184600F048
:103BC000B7F90346DBB25B01DAB27B689A757B68B2
:103BD0009B7DDB43DAB27B689A757B6901337B613D
:103BE000ACE707F108031A787B689A7107F10803BC
:103BF00001331A787B68DA7107F1080302331A7807
:103C00007B681A7207F10803023301331A787B6864
:103C10005A7207F1080304331A787B689A7207F125
:103C20000803043301331A787B68DA7207F108035A
:103C300006331A787B681A7307F1080306330133D9
:103C40001A787B685A7307F1080308331A787B687F
:103C50009A7307F10803083301331A787B68DA7323
:103C600007F108030A331A787B681A7407F108030E
:103C70000A3301331A787B685A7400BF1837BD467F
:103C800080BD000080B582B000AF78601C4B1B780F
:103C9000002B02D07868FFF715FF1A4B1B78002B1A
:103CA0002AD0194B5B689B09312B13D17B681B68A9
:103CB00018467B680633082240F6444100F03EF87F
:103CC0007B681B6818467B680E33042240F6484127
:103CD00000F034F80C4B5B689B09322B09D17B68F0
:103CE0001B6818467B68163301224FF4486100F0C8
:103CF00025F8044B00221A7000BF0837BD4680BD6E
:103D0000D8060020D4060020B806002080B582B076
:103D100000AF7860064B074A00217868FEF778FC10
:103D2000054B01221A7000BF0837BD4680BD00BF99
:103D3000B0060020B8060020D406002080B584B06C
:103D400000AFF860B9603B601346FB71FA79FB681D
:103D50001A61FB68BA685A60FB689A6AFB689A60E5
:103D6000FB68DA6AFB68DA60FB6893F82030002BA6
:103D700040F0B5805C4B1B689B680023002B24D06F
:103D8000F96801233A685848FEF7F5FB0346002B13
:103D900014BF01230023DBB2002B0DD0FB680122EE
:103DA00083F821205048FEF7B3FD03461A46FB680E
:103DB0005A624FF0FF3392E0FB68012283F8202023
:103DC000FB68002283F8212054E0474B1B689B6866
:103DD0000023002B24D0F96802233A684248FEF7FA
:103DE000CAFB0346002B14BF01230023DBB2002BC8
:103DF0000DD0FB68012283F821203B48FEF788FDA7
:103E000003461A46FB685A624FF0FF3367E0FB68CF
:103E1000012283F82020FB68002283F8212029E07A
:103E2000314B1B689B680023002B23D0F9680423C7
:103E30003A682D48FEF79FFB0346002B14BF012371
:103E40000023DBB2002B0DD0FB68012283F8212078
:103E50002548FEF75DFD03461A46FB685A624FF09F
:103E6000FF333CE0FB68012283F82020FB6800223E
:103E700083F82120FB6893F82130002B3FF474AFC6
:103E8000FB685B6A013B052B3FF66EAF01A252F85F
:103E900023F000BFAD3E0008B53E0008BD3E00085F
:103EA000C53E0008CD3E0008D53E00080F4800F092
:103EB000FFFD13E00E4800F0FBFD0FE00D4800F0A1
:103EC000F7FD0BE00C4800F0F3FD07E00B4800F0B5
:103ED000EFFD03E00A4800F0EBFD00BF44E71846A1
:103EE0001037BD4680BD00BF50080020F88500088F
:103EF00004860008108600081C860008308600082A
:103F00004486000880B483B000AF78607B681B688B
:103F1000054A934202D1054B01221A7000BF0C37AB
:103F2000BD465DF8047B704700100040D8060020B5
:103F300080B582B000AF78607B681A687B689B8828
:103F400019461046FEF780FE03461BB21846083796
:103F5000BD4680BD10B500248AB01822214604A8B1
:103F600001940294039400F09BFD23484FF0A0437A
:103F700080E8180001230361C36203224363042322
:103F80008460C46144620463C4600262436184610A
:103F90008463FDF789FF08B100F0D6FB01A916483C
:103FA0000194FEF7F9F908B100F0CEFB0123049368
:103FB000059304A9002310480793069308930993D7
:103FC000FEF76AF808B100F0BFFB022304A90A4813
:103FD00004930593FEF760F808B100F0B5FB0423E5
:103FE000049304A9032304480593FEF755F808B188
:103FF00000F0AAFB0AB010BD7407002010B586B00F
:1040000018220021684600F04BFD1F481F4B03603B
:1040100003220023012402620422436083600461BE
:10402000C36143620363C462C360436342618361EB
:104030008363FDF739FF08B100F086FB00230322FC
:1040400069461148009401940393029204930593E6
:10405000FEF722F808B100F077FB022369460A4810
:1040600000930193FEF718F808B100F06DFB0323ED
:104070006946054800930193FEF70EF808B100F079
:1040800063FB06B010BD00BF2007002000010050F8
:1040900030B514228BB0054600210DEB020000F074
:1040A000FFFC2B68B3F1A04F3CD1324A13680133B7
:1040B000012B1360304B08D15A6942F080525A618B
:1040C0005A6902F080520192019A5A692B4C42F4CB
:1040D00000325A615B6903F400330293029B0B23A5
:1040E000059305A903234FF090400693FEF7F2FCD9
:1040F000234B23608022E2604FF4807222614FF4F0
:1041000080620023626120226360A360A261E36198
:104110002046FEF767FC08B100F016FBEC63656211
:104120000BB030BD174A9342FAD1124A13680133DB
:10413000012B1360104B08D15A6942F080525A612A
:104140005A6902F080520392039A5A690E4C42F463
:1041500000325A615B6903F400330493049B7023BB
:10416000059305A903234FF090400693FEF7B2FC98
:10417000064BBEE7E006002000100240C807002002
:1041800008000240000100500C0800201C00024002
:104190000E480F494FF0807208B50423C2604FF4F7
:1041A000C02280E80A00026100230122836043618B
:1041B000037642768376C37603774277FEF760F91B
:1041C00018B1BDE8084000F0BFBA08BD5008002093
:1041D0000064004010B5044688B01422002103A8F2
:1041E00000F05EFC22681B4B9A4231D103F5D633B6
:1041F00003A9DA6942F00072DA61DA6902F000724A
:104200000192019A5A6942F400325A615B6903F4DF
:1042100000330293029B4FF4C05303930223049391
:10422000032306934FF0904009230793FEF752FCB7
:10423000002211461420FEF77FFB1420FEF7B0FB8E
:10424000002215201146FEF777FB1520FEF7A8FB8C
:1042500008B010BD006400400E4B07B55A6942F02B
:1042600001025A615B69002203F0010311460193C8
:104270000B20019BFEF760FB0B20FEF791FB002259
:1042800011460C20FEF758FB0C20FEF789FB03B00B
:104290005DF804FB0010024070B588B014220021C4
:1042A00003A800F0FDFB204B204D5A6942F4800228
:1042B0005A615A6902F480020092009A5A6942F4E3
:1042C00000325A615A6902F400320192019A5A6925
:1042D00042F480225A615B6903F480230022029336
:1042E0002846082100240126029BFEF7B3FC4FF468
:1042F000F06303A94FF09040039304940596FEF7F2
:10430000E9FB032303A92846039304940596FEF7CB
:10431000E1FB082303A92846039304960594069419
:10432000FEF7D8FB08B070BD001002400004004842
:1043300080B485B000AFF860B9607A60FB6818336C
:1043400000221A605A60FB68002283F82020FB6874
:10435000002283F82120FB68002283F82220FB68DA
:1043600000225A62FB68BA689A62FB687A68DA626D
:10437000FB6818461437BD465DF8047B704780B46F
:1043800085B000AFF860B9601346FB80FB68BA687F
:104390001A60FB68FA889A80FB6818461437BD4695
:1043A0005DF8047B704780B483B000AF78600B4643
:1043B0007B8013463B807B683A881A807B687A88CA
:1043C0005A807B6818460C37BD465DF8047B704701
:1043D00080B582B000AF78607B6800220421184667
:1043E000FFF7A6FF7B68303380224FF090411846DC
:1043F000FFF7C5FF7B6838334FF400724FF09041F0
:104400001846FFF7BCFF7B6840334FF480624FF0E3
:1044100090411846FFF7B3FF7B68483301222149DA
:104420001846FFF7ACFF7B68503302221D4918463F
:10443000FFF7A5FF7B6858334FF480724FF090412F
:104440001846FFF79CFF7B68603303220221184661
:10445000FFF7A9FF7B686433022202211846FFF7A9
:10446000A2FF7B686833012202211846FFF79BFFF9
:104470007B686C33042201211846FFF794FF7B68A8
:104480007033022201211846FFF78DFF7B687433D9
:10449000012201211846FFF786FF7B68184608377E
:1044A000BD4680BD0004004880B483B000AF786092
:1044B00039607B683A681A607B6800229A807B6862
:1044C000063300221A605A607B680E3300221A609D
:1044D0005A607B6800229A757B6818460C37BD4687
:1044E0005DF8047B7047000080B52DED028B84B031
:1044F00000AFF860B96087ED010A97ED017ADFED52
:10450000396AC7EE267AFB68C3ED007AFB680022A1
:104510009A80FB680022DA80FB684FF000029A6004
:10452000FB68BA68DA60FB6893ED027AFB68D3ED4A
:10453000007AB4EE677AF1EE10FA40D0FB68DB88BF
:1045400001339AB2FB68DA80FB6800229A80FB682C
:104550009B881A464FF6FE739A42E4DCFB68DB88C0
:1045600007EE903AB8EE677AFB689B8807EE903AC0
:10457000F8EE677AF7EE006A77EEA67A27EE278ADA
:10458000FEF7C0FE07EE900AB8EE677AC8EE077A2B
:10459000FB68C3ED027AFB6893ED027AFB68D3ED0A
:1045A000007AB4EE677AF1EE10FA06D0FB689B88C9
:1045B00001339AB2FB689A80C9E700BFB3E7FB6892
:1045C000DB88013B1A46BB685A60FB689B881A4629
:1045D000BB68DA60FB6818461037BD46BDEC028B3D
:1045E00080BD00BF00007A4480B582B000AF786023
:1045F0007B68DB681846FEF763FF00BF0837BD46DF
:1046000080BD000080B5A8B000AFFDF7F1FB00F061
:104610002FF8FFF741FEFFF71FFEFFF79BFCFFF7A8
:10462000EDFCFFF7B5FD00F097F900F057F907F141
:1046300028031846FFF7CCFE07F11803B3EE040A6F
:104640000A491846FFF750FF07F118031846FFF70D
:10465000CBFF07F128023B4611461846FFF724FF1F
:104660003B461846FFF70EFBFAE700BF780800202C
:1046700080B596B000AF07F130032822002118461C
:1046800000F00EFA07F11C0300221A605A609A60CB
:10469000DA601A613B1D00221A605A609A60DA6083
:1046A0001A615A6101233B634FF4A0237B6300230B
:1046B000BB6301233B640223FB644FF480333B65FF
:1046C0004FF4E0137B6507F130031846FEF7C8FA94
:1046D0000346002B14BF01230023DBB2002B01D0C3
:1046E00000F032F80F23FB6102233B6200237B6260
:1046F0004FF48063BB620023FB6207F11C030221BD
:104700001846FEF755FD0346002B14BF0123002376
:10471000DBB2002B01D000F017F880237B604FF450
:1047200080737B613B1D1846FEF71CFE0346002B81
:1047300014BF01230023DBB2002B01D000F004F8EA
:1047400000BF5837BD4680BD80B400AF00BFBD4636
:104750005DF8047B704700000A4B9A6942F0010241
:104760009A619A6982B002F001020092009ADA69B5
:1047700042F08052DA61DB6903F080530193019BC0
:1047800002B07047001002407047FEE7FEE7FEE708
:10479000FEE7704770477047FDF73CBB0148FEF7E6
:1047A00051B900BFC80700200148FEF74BB900BF50
:1047B0000C0800200148FDF7ADBF00BF50080020E5
:1047C000FFF7F8BF0148FEF78ABE00BF7808002057
:1047D0000120704708B500F039F9162303604FF047
:1047E000FF3008BD08B500F031F916230360FEE77D
:1047F00070B50E4615460C46A31B9D4201DC2846AB
:1048000070BDAFF3008004F8010BF5E770B50E46FC
:1048100015460C46A31B9D4201DC284670BD14F8CA
:10482000010BAFF30080F5E708B50A4B19680246A3
:1048300009B9094919601868694602448A4206D9CB
:1048400000F004F90C2303604FF0FF3008BD1A603C
:1048500008BD00BFE4060020380900204FF0FF30FB
:1048600070474FF400534B600020704701207047A1
:10487000002070471549D1F8883043F47003C1F81F
:104880008830134B1A6842F001021A605868114AC6
:1048900002405A601A6822F0847222F480321A6050
:1048A0001A6822F480221A605A6822F4FE025A60C2
:1048B000DA6A22F00F02DA62186B074A02401A63C2
:1048C00000229A604FF000638B60704700ED00E0BB
:1048D000001002400CC07FF8CCFC00FF1FB50D4853
:1048E0000D4B002401940294039480E81800846026
:1048F000C4608461FEF7EEFE08B1FFF725FF01A951
:10490000044801940394FEF7FFFE08B1FFF71CFF73
:1049100004B010BD780800200010004007B50D4B12
:1049200002689A4212D103F500333620DA6942F068
:104930001002DA61DB69002203F0100301931146D3
:10494000019BFDF7F9FF3620FEF72AF803B05DF86A
:1049500004FB00BF0010004008B50C480C4B4FF49E
:10496000E13E80E808400C2200238360C3600361BD
:1049700042618361C36103624362FFF748F818B183
:10498000BDE80840FFF7E0BE08BD00BFB808002042
:104990000044004010B5044688B01422002103A84A
:1049A00000F07EF82268134B9A4221D103F5E633DA
:1049B00003A9DA6942F40032DA61DA6902F40032FA
:1049C0000192019A5A6942F400325A615B6903F418
:1049D00000330293029B48F20403039302230493DF
:1049E000032306934FF0904007230793FEF772F8D6
:1049F00008B010BD00440040DFF834D0002103E0CF
:104A00000C4B5B58435004310B480C4B42189A42F4
:104A1000F6D30B4A02E0002342F8043B094B9A42CA
:104A2000F9D3FFF727FF00F017F8FFF7EBFDFEE7DC
:104A300000300020048B0008000000207C060020CD
:104A40007C06002038090020FEE70000014B1868B2
:104A5000704700BF0C00002070B50D4E0D4CA41B1C
:104A6000A4100025A54209D10B4E0C4C03F0AAFD61
:104A7000A41BA4100025A54205D170BD56F8253011
:104A800098470135EEE756F8253098470135F2E7AB
:104A9000FC8A0008FC8A0008FC8A0008008B0008D9
:104AA00002440346934200D1704703F8011BF9E723
:104AB0000FB40A4B13B51C6824B1A36913B920467F
:104AC00002F07AF805AB049AA1680193204600F041
:104AD00007F802B0BDE8104004B070470C00002099
:104AE0002DE9F04FBDB0884615461C461F4683464B
:104AF00002F012FA03680D931846FBF7B9FB099010
:104B0000BBF1000F05D0DBF8183013B9584602F09E
:104B100053F8994B984537D1DBF80480D8F86430C6
:104B2000D80707D4B8F80C30990503D4D8F8580042
:104B300002F002FAB8F90C309A0409D443F4005395
:104B4000A8F80C30D8F8643023F40053C8F8643067
:104B5000B8F80C301E0702D5D8F8103003BB414618
:104B6000584601F039F8D8B1D8F86430DD0707D4D9
:104B7000B8F80C309C0503D4D8F8580002F0DDF9E1
:104B80004FF0FF330A9326E07C4B984502D1DBF8C7
:104B90000880C3E77A4B984508BFDBF80C80BDE777
:104BA000B8F80C3003F01A020A2A18D1B8F90E200E
:104BB000002A14DBD8F86420D00705D4990503D463
:104BC000D8F8580002F0B9F923462A46414658461B
:104BD00000F0C2FF0A900A983DB0BDE8F08F9FED4B
:104BE000647B8DED067B00232CAC1F9421932093D6
:104BF00005950393119310930A93059D2B4613F883
:104C0000012B12B1252A40F08380059BEE1A0DD0AE
:104C100084E84800219B33442193209B0133072BD8
:104C2000209377DC08340A9B33440A932B78002BBB
:104C300000F039870023691C8DF85F301A464FF069
:104C4000FF3A0B931D460A204E1C097805960291E7
:104C500002992039582900F21D84DFE811F0B300D1
:104C60001B041B04B8001B041B041B041B041B04B3
:104C70001B04BB0065001B04C400C7001B04E40048
:104C8000E700E700E700E700E700E700E700E700EC
:104C9000E7001B041B041B041B041B041B041B0454
:104CA0001B041B041B041B0131011B0431011B04E9
:104CB0001B041B041B04FA001B041B0446031B04F7
:104CC0001B041B041B041B04AD031B041B049300E7
:104CD0001B041B041B041B041B041B041B041B04DC
:104CE0001B041B040D016B00310131013101FD007A
:104CF0006B001B041B0400011B04280348037C03F6
:104D000007011B048D031B04AF031B041B04C70313
:104D10001D4673E71FAA4146584602F0CCFE002804
:104D200040F099862CAC7EE701232B2205998BE776
:104D30000F46FBE70BB18DF85F20AA0640F1B0806B
:104D4000073727F0070707F10803D7E9006704933F
:104D5000002E77F1000306DA76424FF02D0367EB61
:104D600047078DF85F300123D0E200BFAFF300802A
:104D700000000000000000001487000834870008CD
:104D8000F48600080BB18DF85F20A24B1193A906A1
:104D900040F13183073727F0070707F10803D7E908
:104DA00000670493EB070BD556EA070308D03023BE
:104DB0008DF860309DF808308DF8613045F00205BF
:104DC0000223A0E2002AB1D101232022AEE745F060
:104DD0000105ABE73E680B96002E07F10401A7DA48
:104DE00076420B960F4645F004059FE705994E1C49
:104DF000097802912A2910D04FF0000A05960299ED
:104E0000303909293FF624AF00FB0A1A05990E46EE
:104E100016F8011B02910596F1E73968059641EAFB
:104E2000E17A043782E745F080057FE700210B91A6
:104E300002990B9E303900FB06110B9105990E4625
:104E400016F8011B02910299059630390929EFD90C
:104E5000FEE645F0080569E745F0400566E7059977
:104E600009786C2905D105990131059145F0200596
:104E70005CE745F0100559E73B1D049300263B68AD
:104E80008DF888308DF85F604FF0010A08960DF1BB
:104E900088091EE10BB18DF85F2045F010054CE745
:104EA00015F0100F07F1040303D03E680493F717C1
:104EB0004EE73E68049315F0400F18BF36B2F6E790
:104EC0000BB18DF85F20073727F0070707F10803BC
:104ED000049397ED007B8DED067B069B1293079B59
:104EE00023F0004313934FF0FF324B4BDDE91201E7
:104EF000FBF718FE002840F0E3854FF0FF32464BE9
:104F0000DDE91201FBF7F0FD002840F0D985002211
:104F10000023DDE90601FBF7DDFD10B12D238DF83F
:104F20005F303E4B3E4A029925F080054729CCBFB1
:104F3000914699464FF0030A00260896C9E0BAF157
:104F4000FF3F22D0029B23F02003472B04D1BAF16C
:104F5000000F08BF4FF0010A45F480731493079BBC
:104F6000002B15DA069B0E93079B03F100430F936A
:104F70002D230C93029B23F02007462F0ED0452FA4
:104F800046D10AF1010602210AE04FF0060AE3E7E2
:104F90009DED067B00238DED0E7BEAE7564603214F
:104FA0001DAB01931AAB0093324619AB9DED0E0B6E
:104FB000584600F00DFF472F814602D1EB0740F124
:104FC0008C8509EB0603462F039311D199F8003025
:104FD000302B09D100220023DDE90E01FBF770FD23
:104FE00010B9C6F101061996039A199B1A44039247
:104FF00000220023DDE90E01FBF762FD90B93022AB
:105000001D9B039999420FD9591C1D911A70F7E7FE
:105010005646B8E7A0860008FFFFEF7F908600089D
:1050200094860008039B1D931D9B472FA3EB090348
:10503000039340F0F880199BDF1C02DB9A4580F255
:105040001F81029B023B0293199A9DF808108DF86C
:105050006C10531E002B1993B6BFC2F101032B2213
:105060002D22092B8DF86D2040F3FA800DF17B0283
:105070000A2693FBF6F006FB10333033092802F8BA
:10508000013C02F1FF31034600F3E380303301F8C5
:10509000013C023A0DF16E030DF17B00824219468C
:1050A000C0F0D980039A1BABCB1A012A109303EBF3
:1050B000020A03DC15F00103089303D0099B9A440C
:1050C000002308930C9B13B12D238DF85F30149DA2
:1050D000002656453346B8BF53460C939DF85F30C3
:1050E00013B10C9B01330C9315F0020314931EBFF4
:1050F0000C9B02330C9315F08403159314D10B9B76
:105100000C9A9F1A002F0FDDA84B2360102F00F37D
:10511000D381219B67601F44209B21970133072B7C
:10512000209300F3E08108349DF85F3073B10DF1F6
:105130005F03236001236360219B01332193209B44
:105140000133072B209300F3D8810834149B6BB1F3
:1051500018AB236002236360219B02332193209BC1
:105160000133072B209300F3D2810834159B802B49
:1051700014D10B9B0C9A9F1A002F0FDD8C4B2360D0
:10518000102F00F3CE81219B67601F44209B219745
:105190000133072B209300F3DD810834A6EB0A06C8
:1051A000002E0FDD824F2760102E00F3DD81209B43
:1051B0002198666001330644072B2196209300F363
:1051C000EA810834E90500F1F081219B84E80006BA
:1051D00053442193209B0133072B209340F31B84DE
:1051E0001FAA4146584602F066FC002840F033846E
:1051F0002CAC680700F112840A9B0B9A0C998A4226
:10520000ACBF9B185B180A93219B3BB11FAA414678
:10521000584602F050FC002840F01D8400232093E3
:10522000049F2CACE9E4029B652B7FF70DAF029B3A
:10523000662B25D1199B002B1ADDBAF1000F01D185
:10524000EE0702D5099A13445344199A08929A46D4
:1052500038E70A460DE712F8011B03F8011B1DE7AA
:10526000302213448DF86E208DF86F301CA919E799
:10527000BAF1000F01D1ED0715D5099B0133E3E722
:10528000199A039B9A4206DBE8070ED5099B134443
:1052900067220292D9E7039B0999002A0B44F7DCA5
:1052A000C2F10102F3E70123CFE71346F0E70BB1A8
:1052B0008DF85F2015F0200F07F1040308D00A993C
:1052C0003A68CE1708463146C2E900011F4694E409
:1052D000E90603D53A680A991160F7E76A06F9D535
:1052E0003A68BDF828101180F0E745F0100515F078
:1052F000200322D0073727F0070707F10803D7E973
:1053000000670493002300228DF85F20BAF1FF3F6D
:1053100000F0E88325F08002089256EA070240F088
:10532000E683BAF1000F00F0A980012B75D0022BA3
:1053300000F0908000260027DFE33A1D15F01001F1
:10534000049202D03E680027DDE715F04003F9D053
:105350003E880027D6E73B1D0493302378228DF842
:105360006030144B3E681193002745F002058DF81C
:10537000612002230292C6E73B1D0026BAF1FF3FDF
:105380000493D7F800908DF85F600AD052463146FA
:105390004846FAF71DFF002800F08C80A0EB090AB0
:1053A000CBE54846FAF764FF8246C6E5C4860008A6
:1053B000D4860008B186000845F01005AE0609D570
:1053C000073727F0070707F10803D7E900670493B9
:1053D000012398E73B1D15F0100F049301D03E68A0
:1053E00002E06806FBD53E880027F1E70BB18DF897
:1053F0005F20A24BCAE43B1D15F0100F049301D0AF
:105400003E6802E06A06FBD53E880027CAE44B46A8
:1054100074E3002F08BF0A2E05D20DF1F0093036D3
:1054200009F8416D85E30DF1B009304639460A228D
:105430000023FBF7B5FB303209F8012D002330467D
:1054400039460A22FBF7ACFB06460F4656EA07032D
:10545000EBD16EE3002600270DF1B00906F00F0333
:10546000119AD35C09F8013D330943EA07733A09FD
:105470001E46174656EA0703F0D15AE33BB9E80740
:1054800005D50DF1F009302309F8413D51E30DF147
:10549000B0094EE30BB18DF85F20029B002B00F0AA
:1054A00002839DF808308DF8883000268DF85F6003
:1054B0000497E9E4064640E510236360219B10331E
:1054C0002193209B0133072B209302DC0834103FEB
:1054D0001AE61FAA4146584602F0EDFA002840F0AD
:1054E000BA822CACF3E71FAA4146584602F0E3FA11
:1054F000002840F0B0822CAC16E61FAA4146584660
:1055000002F0D9FA002840F0A6822CAC1EE61FAAB1
:105510004146584602F0CFFA002840F09C822CAC5D
:1055200024E610226260219A10322192209A0132E0
:10553000072A209202DC0834103F20E61FAA4146C9
:105540005846149302F0B7FA002840F084822CAC3D
:10555000149BF1E71FAA4146584602F0ACFA002816
:1055600040F079822CAC19E610236360219B103344
:105570002193209B0133072B209302DC0834103E3B
:1055800011E61FAA4146584602F095FA002840F05D
:1055900062822CACF3E71FAA4146584602F08BFA10
:1055A000002840F058822CAC0CE6029B652B40F39F
:1055B000AD8100220023DDE90601FBF781FA002816
:1055C00062D02F4B236001236360219B0133219321
:1055D000209B0133072B209325DC0834199B039A69
:1055E000934202DBEA077FF504AE0D9B2360099B23
:1055F0006360099A219B13442193209B0133072B5D
:1056000020931ADC0834039B5E1E002E7FF7F1AD59
:105610001C4F4FF01009102E276018DC6660219B8C
:105620001E442196D6E51FAA4146584602F043FA89
:10563000002840F010822CACD0E71FAA4146584603
:1056400002F039FA002840F006822CACDBE7219BFF
:10565000C4F8049010332193209B0133072B20932F
:1056600002DC0834103ED6E71FAA4146584602F035
:1056700022FA002840F0EF812CACF3E7B186000855
:10568000C2860008D4860008199B002B7ADC9D4B4B
:10569000236001236360219B01332193209B01330D
:1056A000072B209344DC0834199B23B9039B13B9BF
:1056B000EB077FF59EAD0D9B2360099B6360099A04
:1056C000219B13442193209B0133072B209339DC2A
:1056D00004F10803199E002E19DA8B4F764210242C
:1056E000102E1F6038DC219A5E601644209A2196A5
:1056F0000132072A03F10803209208DD1FAA414660
:10570000584602F0D8F9002840F0A5812CAB039A46
:105710005A600399219AC3F800900A442192209A72
:105720000132072A20923FF75BAD03F1080460E5E0
:105730001FAA4146584602F0BEF9002840F08B816E
:105740002CACB1E71FAA4146584602F0B4F9002834
:1057500040F081812CABBDE7219A5C601032219230
:10576000209A0132072A209202DC0833103EB7E764
:105770001FAA4146584602F09EF9002840F06B816E
:105780002CABF3E7089B039A9342A8BF1346002B68
:105790001E460BDD6360219BC4F8009033442193C7
:1057A000209B0133072B209362DC0834089B002EDA
:1057B000A8BF9B1B002B1E460FDD534F4FF0100A56
:1057C000102E27605EDC219B66601E44209B219684
:1057D0000133072B20936CDC0834199B039A934206
:1057E00001DBEF070DD50D9B2360099B6360099AD0
:1057F000219B13442193209B0133072B209362DCD0
:105800000834039B089A9E1A199B039AD31A9E4246
:10581000A8BF1E46002E0CDD089B4B4484E84800C0
:10582000219B33442193209B0133072B209354DC8D
:105830000834199B039A002EA2EB0303ACBF9E1BF6
:105840001E46002E7FF7D5AC2F4F4FF01009102EBB
:1058500027607FF7E3AE219BC4F8049010332193B7
:10586000209B0133072B209341DC0834103EEEE7E8
:105870001FAA4146584602F01EF9002840F0EB806E
:105880002CAC93E7219BC4F804A010332193209BF8
:105890000133072B209302DC0834103E90E71FAA47
:1058A0004146584602F007F9002840F0D4802CAC5D
:1058B000F3E71FAA4146584602F0FDF8002840F0E1
:1058C000CA802CAC89E71FAA4146584602F0F3F87B
:1058D000002840F0C0802CAC93E71FAA41465846F0
:1058E00002F0E9F8002840F0B6802CACA1E71FAA2E
:1058F0004146584602F0DFF8002840F0AC802CAC5E
:10590000B4E700BFC2860008D4860008039B012BC1
:1059100001DCEE0776D501236360219BC4F800907B
:1059200001332193209B0133072B209336DC08346D
:105930000D9B2360099B6360099A219B134421936B
:10594000209B0133072B209331DC083400230022F5
:10595000DDE90601FBF7B4F8039B5E1E00282FD19A
:1059600009F1010384E84800219B039A013B134499
:105970002193209B0133072B20934ADD1FAA414628
:10598000584602F098F8002865D12CAC1BAB236078
:10599000109B6360109A219B13441AE41FAA41468E
:1059A000584602F088F8002855D12CACC0E71FAA51
:1059B0004146584602F07FF800284CD12CACC5E790
:1059C000002EE3DD604F4FF01009102E276004DC3D
:1059D000219B66601E442196CBE7219BC4F804906E
:1059E00010332193209B0133072B209302DC0834D2
:1059F000103EEAE71FAA4146584602F05CF850BB49
:105A00002CACF5E701236360219BC4F800900133BF
:105A1000AEE70834BAE70834FFF7EBBB0B9B0C9AF0
:105A20009D1A002D7FF7E8AB1026484B2360102D00
:105A300024DC219B65601D44209B21950133072BAD
:105A400020937FF7D9AB1FAA4146584602F033F89E
:105A500000283FF4D1ABD8F86430D90707D4B8F8A0
:105A60000C309A0503D4D8F8580001F066FAB8F85B
:105A70000C305B067FF5AFA8FFF782B8219B66600C
:105A800010332193209B0133072B209302DC083431
:105A9000103DCAE71FAA4146584602F00CF80028FC
:105AA000D9D12CACF4E7219B13B900232093D2E782
:105AB0001FAA4146584601F0FEFF0028F5D0CAE76C
:105AC000DDE9062310461946FBF72CF800283FF4C1
:105AD00036AA1F4B1F4AFFF726BA1D9B1B1A0393BA
