:020000040800F2
:1000000000300020857A0008ED760008FB760008B5
:1000100001770008077700080D770008000000004E
:10002000000000000000000000000000137700083E
:1000300021770008000000002F7700083D770008B6
:10004000D57A0008D57A0008D57A0008D57A000854
:10005000D57A0008D57A0008D57A0008D57A000844
:10006000D57A0008D57A0008D57A000849770008C3
:100070005D770008D57A0008D57A0008D57A00089F
:10008000D57A0008D57A0008D57A0008D57A000814
:100090007177000885770008D57A0008D57A0008BE
:1000A000D57A0008D57A0008D57A0008D57A0008F4
:1000B000D57A0008D57A000800000000D57A00083B
:1000C000D57A00080000000000000000D57A000882
:1000D00000000000D57A0008D57A0008D57A00081B
:1000E000D57A0008D57A0008000000000000000062
:1000F0000000000000000000000000000000000000
:1001000000000000000000000000000000000000EF
:10011000000000000000000099770008D57A000870
:1001200000000000000000000000000000000000CF
:1001300000000000000000000000000000000000BF
:10014000D57A0008D57A0008000000000000000001
:10015000000000000000000000000000000000009F
:10016000000000000000000000000000000000008F
:10017000000000000000000000000000000000007F
:0801800000000000D57A000820
:1001900010B5054C237833B9044B13B10448AFF3C1
:1001A00000800123237010BD7C06002000000000A9
:1001B000FCB7000808B5034B1BB103490348AFF374
:1001C000008008BD0000000080060020FCB7000889
:1001D00001F0FF01102A2BDB10F0070F08D010F8F8
:1001E000013B013A8B422DD010F0070F42B3F6D1FC
:1001F000F0B441EA012141EA014122F007047FF015
:1002000000070023F0E80256083C85EA010586EA6B
:10021000010685FA47F5A3FA87F586FA47F6A5FAA7
:1002200087F68EB9EED1F0BC01F0FF0102F00702B3
:1002300032B110F8013B013A83EA010313B1F8D15E
:100240000020704701387047002D06BF354603383F
:10025000073815F0010F07D1013015F4807F02BF78
:10026000013015F4C03F0130F0BC0138704700BFC9
:10027000034613F8012B002AFBD1181A01387047E6
:1002800081F0004102E000BF83F0004330B54FEA47
:1002900041044FEA430594EA050F08BF90EA020FB4
:1002A0001FBF54EA000C55EA020C7FEA645C7FEA47
:1002B000655C00F0E2804FEA5454D4EB5555B8BF6A
:1002C0006D420CDD2C4480EA020281EA030382EADB
:1002D000000083EA010180EA020281EA0303362D6D
:1002E00088BF30BD11F0004F4FEA01314FF4801C40
:1002F0004CEA113102D0404261EB410113F0004F52
:100300004FEA03334CEA133302D0524263EB430308
:1003100094EA050F00F0A780A4F10104D5F1200EA6
:100320000DDB02FA0EFC22FA05F2801841F1000101
:1003300003FA0EF2801843FA05F359410EE0A5F1D5
:1003400020050EF1200E012A03FA0EFC28BF4CF006
:10035000020C43FA05F3C01851EBE37101F00045BC
:1003600007D54FF0000EDCF1000C7EEB00006EEBC9
:100370000101B1F5801F1BD3B1F5001F0CD3490853
:100380005FEA30004FEA3C0C04F101044FEA4452AA
:1003900012F5800F80F09A80BCF1004F08BF5FEA31
:1003A000500C50F1000041EB045141EA050130BD11
:1003B0005FEA4C0C404141EB010111F4801FA4F1B4
:1003C0000104E9D191F0000F04BF01460020B1FA09
:1003D00081F308BF2033A3F10B03B3F120020CDA41
:1003E0000C3208DD02F1140CC2F10C0201FA0CF01F
:1003F00021FA02F10CE002F11402D8BFC2F1200C84
:1004000001FA02F120FA0CFCDCBF41EA0C01904039
:10041000E41AA2BF01EB0451294330BD6FEA040482
:100420001F3C1CDA0C340EDC04F11404C4F120026D
:1004300020FA04F001FA02F340EA030021FA04F37F
:1004400045EA030130BDC4F10C04C4F1200220FAD6
:1004500002F001FA04F340EA0300294630BD21FA14
:1004600004F0294630BD94F0000F83F4801306BFDA
:1004700081F480110134013D4EE77FEA645C18BFCE
:100480007FEA655C29D094EA050F08BF90EA020F65
:1004900005D054EA000C04BF1946104630BD91EA5D
:1004A000030F1EBF0021002030BD5FEA545C05D160
:1004B0004000494128BF41F0004130BD14F580049F
:1004C0003CBF01F5801130BD01F0004545F0FE4113
:1004D00041F470014FF0000030BD7FEA645C1ABF48
:1004E000194610467FEA655C1CBF0B46024650EA7F
:1004F000013406BF52EA033591EA030F41F40021AB
:1005000030BD00BF90F0000F04BF0021704730B530
:100510004FF4806404F132044FF000054FF0000105
:1005200050E700BF90F0000F04BF0021704730B5C6
:100530004FF4806404F1320410F0004548BF40429B
:100540004FF000013EE700BF42004FEAE2014FEAF0
:1005500031014FEA02701FBF12F07F4393F07F4FCB
:1005600081F06051704792F0000F14BF93F07F4FFD
:10057000704730B54FF4607401F0004521F0004140
:1005800020E700BF50EA010208BF704730B54FF0C6
:1005900000050AE050EA010208BF704730B511F0CB
:1005A000004502D5404261EB41014FF4806404F103
:1005B00032045FEA915C3FF4DCAE4FF003025FEA85
:1005C000DC0C18BF03325FEADC0C18BF033202EB0D
:1005D000DC02C2F1200300FA03FC20FA02F001FA67
:1005E00003FE40EA0E0021FA02F11444C1E600BF06
:1005F00070B54FF0FF0C4CF4E06C1CEA11541DBFB9
:100600001CEA135594EA0C0F95EA0C0F00F0DEF883
:100610002C4481EA030621EA4C5123EA4C5350EA68
:10062000013518BF52EA033541F4801143F48013B9
:1006300038D0A0FB02CE4FF00005E1FB02E506F04A
:100640000042E0FB03E54FF00006E1FB03569CF09F
:10065000000F18BF4EF0010EA4F1FF04B6F5007FA5
:1006600064F5407404D25FEA4E0E6D4146EB060617
:1006700042EAC62141EA55514FEAC52040EA5E50A0
:100680004FEACE2EB4F1FD0C88BFBCF5E06F1ED84A
:10069000BEF1004F08BF5FEA500E50F1000041EB81
:1006A000045170BD06F0004646EA010140EA02002E
:1006B00081EA0301B4EB5C04C2BFD4EB0C0541EA50
:1006C000045170BD41F480114FF0000E013C00F365
:1006D000AB8014F1360FDEBF002001F0004170BD89
:1006E000C4F10004203C35DA0C341BDC04F11404A2
:1006F000C4F1200500FA05F320FA04F001FA05F22E
:1007000040EA020001F0004221F0004110EBD370FA
:1007100021FA04F642EB06015EEA430E08BF20EA26
:10072000D37070BDC4F10C04C4F1200500FA04F3C9
:1007300020FA05F001FA04F240EA020001F000415B
:1007400010EBD37041F100015EEA430E08BF20EACE
:10075000D37070BDC4F1200500FA05F24EEA020E16
:1007600020FA04F301FA05F243EA020321FA04F045
:1007700001F0004121FA04F220EA020000EBD370FC
:100780005EEA430E08BF20EAD37070BD94F0000FFC
:100790000FD101F00046400041EB010111F4801F30
:1007A00008BF013CF7D041EA060195F0000F18BFE1
:1007B000704703F00046520043EB030313F4801F1D
:1007C00008BF013DF7D043EA0603704794EA0C0FD7
:1007D0000CEA135518BF95EA0C0F0CD050EA4106ED
:1007E00018BF52EA4306D1D181EA030101F000416A
:1007F0004FF0000070BD50EA410606BF1046194692
:1008000052EA430619D094EA0C0F02D150EA01369D
:1008100013D195EA0C0F05D152EA03361CBF1046DE
:1008200019460AD181EA030101F0004141F0FE417D
:1008300041F470014FF0000070BD41F0FE4141F401
:10084000780170BD70B54FF0FF0C4CF4E06C1CEA01
:1008500011541DBF1CEA135594EA0C0F95EA0C0FB6
:1008600000F0A7F8A4EB050481EA030E52EA033571
:100870004FEA013100F088804FEA03334FF0805592
:1008800045EA131343EA12634FEA022245EA1115BF
:1008900045EA10654FEA00260EF000419D4208BF70
:1008A000964244F1FD0404F5407402D25B084FEA1D
:1008B0003202B61A65EB03055B084FEA32024FF4C9
:1008C00080104FF4002CB6EB020E75EB030E22BF26
:1008D000B61A754640EA0C005B084FEA3202B6EBE6
:1008E000020E75EB030E22BFB61A754640EA5C0095
:1008F0005B084FEA3202B6EB020E75EB030E22BF25
:10090000B61A754640EA9C005B084FEA3202B6EB25
:10091000020E75EB030E22BFB61A754640EADC00E4
:1009200055EA060E18D04FEA051545EA16754FEA46
:1009300006164FEAC30343EA52734FEAC2025FEA64
:100940001C1CC0D111F4801F0BD141EA00014FF0F3
:1009500000004FF0004CB6E711F4801F04BF0143C4
:100960000020B4F1FD0C88BFBCF5E06F3FF6AFAEE0
:10097000B5EB030C04BFB6EB020C5FEA500C50F170
:10098000000041EB045170BD0EF0004E4EEA1131F3
:1009900014EB5C04C2BFD4EB0C0541EA045170BDFA
:1009A00041F480114FF0000E013C90E645EA060E3E
:1009B0008DE60CEA135594EA0C0F08BF95EA0C0F6C
:1009C0003FF43BAF94EA0C0F0AD150EA01347FF4B4
:1009D00034AF95EA0C0F7FF425AF104619462CE78B
:1009E00095EA0C0F06D152EA03353FF4FDAE1046EE
:1009F000194622E750EA410618BF52EA43067FF43F
:100A0000C5AE50EA41047FF40DAF52EA43057FF4CE
:100A1000EBAE12E74FF0FF3C06E000BF4FF0010CD9
:100A200002E000BF4FF0010C4DF804CD4FEA410C3D
:100A30007FEA6C5C4FEA430C18BF7FEA6C5C1BD00A
:100A400001B050EA410C0CBF52EA430C91EA030F8B
:100A500002BF90EA020F0020704710F1000F91EAE8
:100A6000030F58BF994208BF90422CBFD8176FEAB6
:100A7000E37040F0010070474FEA410C7FEA6C5C84
:100A800002D150EA013C07D14FEA430C7FEA6C5C8B
:100A9000D6D152EA033CD3D05DF8040B704700BFB7
:100AA0008446104662468C461946634600E000BF05
:100AB00001B5FFF7B7FF002848BF10F1000F01BDD7
:100AC0004DF808EDFFF7F4FF0CBF012000205DF8A2
:100AD00008FB00BF4DF808EDFFF7EAFF34BF012027
:100AE00000205DF808FB00BF4DF808EDFFF7E0FFC0
:100AF00094BF012000205DF808FB00BF4DF808ED11
:100B0000FFF7CEFF94BF012000205DF808FB00BF77
:100B10004DF808EDFFF7C4FF34BF012000205DF859
:100B200008FB00BF4FEA410C7FEA6C5C02D150EA3F
:100B3000013C0AD14FEA430C7FEA6C5C02D152EAD5
:100B4000033C02D14FF0000070474FF001007047A6
:100B50004FEA410212F5001215D211D56FF47873E5
:100B6000B3EB625212D94FEAC12343F0004343EA88
:100B7000505311F0004F23FA02F018BF4042704763
:100B80004FF00000704750EA013005D111F00040ED
:100B900008BF6FF0004070474FF00000704700BF83
:100BA00053B94AB9002908BF00281CBF4FF0FF31D4
:100BB0004FF0FF3001F0F6B8ADF1080C6DE904CE4E
:100BC00000F006F8DDF804E0DDE9022304B0704728
:100BD0002DE9F0478C460D460446089E002B51D166
:100BE0008A4217466DD9B2FA82FEBEF1000F0BD0D1
:100BF000CEF1200C01FA0EF520FA0CFC02FA0EF7E9
:100C00004CEA050C00FA0EF44FEA174A250CBCFB1F
:100C1000FAF81FFA87F90AFB18CC45EA0C4508FBDD
:100C200009F3AB420AD9ED1908F1FF3280F02381B4
:100C3000AB4240F22081A8F102083D44ED1AA4B273
:100C4000B5FBFAF00AFB105544EA054400FB09F92C
:100C5000A14509D9E41900F1FF3380F00A81A145CB
:100C600040F2078102383C44A4EB090440EA084002
:100C70000021002E61D024FA0EF40023346073604A
:100C8000BDE8F0878B4207D9002E54D0002186E8BA
:100C900021000846BDE8F087B3FA83F1002940F04F
:100CA0008E80AB4202D3824200F2FA80841A65EB56
:100CB00003050120AC46002E3FD086E81010BDE8A9
:100CC000F08712B90127B7FBF2F7B7FA87FEBEF13A
:100CD000000F34D1EB1B3A0C1FFA87FC0121B3FB48
:100CE000F2F8250C02FB183345EA03450CFB08F328
:100CF000AB4207D9ED1908F1FF3002D2AB4200F246
:100D0000D1808046ED1AA3B2B5FBF2F002FB10557C
:100D100043EA05440CFB00FCA44507D9E41900F1A3
:100D2000FF3302D2A44500F2B8801846A4EB0C04AD
:100D300040EA08409DE731463046BDE8F087CEF1F5
:100D4000200405FA0EF307FA0EF720FA04F83A0C1D
:100D500025FA04F448EA0308B4FBF2F14FEA184517
:100D600002FB11441FFA87FC45EA044501FB0CF322
:100D7000AB4200FA0EF409D9ED1901F1FF3080F011
:100D80008A80AB4240F2878002393D44EB1A1FFA59
:100D900088F5B3FBF2F002FB103345EA034500FB94
:100DA0000CF3AB4207D9ED1900F1FF386FD2AB421B
:100DB0006DD902383D44EB1A40EA01418FE7C1F199
:100DC000200722FA07F88B4005FA01F448EA0303EA
:100DD00020FA07FE4FEA134CFD404EEA040EB5FB25
:100DE000FCF94FEA1E440CFB19551FFA83F844EA3C
:100DF000054509FB08F4AC4202FA01F200FA01FAD7
:100E000008D9ED1809F1FF3043D2AC4241D9A9F11C
:100E100002091D442D1B1FFA8EFEB5FBFCF00CFBD6
:100E200010554EEA054400FB08F8A04507D9E41820
:100E300000F1FF3529D2A04527D902381C4440EAE9
:100E40000940A4EB0804A0FB02894C45C6464D4668
:100E500015D312D056B1BAEB0E0364EB050404FAB5
:100E600007F7CB401F43CC40376074600021BDE8DA
:100E7000F0871846F8E69046E0E6C245EAD2B8EBBD
:100E8000020E69EB03050138E4E72846D7E7404640
:100E900091E78146BEE7014678E702383C4445E7E2
:100EA000084608E7A8F102083D442BE703685A000A
:100EB0004CBF43F0004323F000431844704700BF89
:100EC00061B32DE9F84F01F1FF3A90460646D1464D
:100ED000002707EB090404EBD4746410E5007119D2
:100EE0000846FFF7E3FFA245834605F108003044BA
:100EF00009D0FFF7DBFFC34500F1FF3005D84045BF
:100F000009D2671CE5E7C34505D9A74202D004F121
:100F1000FF39DEE700210846BDE8F88F0846704734
:100F2000012807D0022807D0044B00280CBF184620
:100F30000020704702487047024870472516000895
:100F4000291600082D16000830B5244B83B004463E
:100F50008D1E7BB301A92846AFF3008020B3019911
:100F60002A46FFF7ADFF0146F0B1FFF79FFF4B6840
:100F7000A064012B12D0002B01F1040020DBFFF74D
:100F800095FF0023E06423650368002B1CDBFFF75B
:100F90008DFF00232061184603B030BD002323617C
:100FA0000523184603B030BD0023236109231846EA
:100FB00003B030BD0A490B48091AC9100191CFE7A7
:100FC0000123E0642365DFE7C3F30360FFF7A8FFB5
:100FD0000028206114BF00230923DCE70000000083
:100FE00040BD000820BC00080368DA0710B50446BD
:100FF00006D49B0700F1480009D500F051FC236896
:10100000590709D51A070ED5DB0613D510BD00F018
:101010003FFC23685907F5D404F1D00000F048FCE8
:1010200023681A07F0D404F5A87000F049FC23687F
:10103000DB06EBD404F5E870BDE8104000F084BC9A
:10104000036803B103441846704700BF0920704786
:10105000704700BF70B504460D4608E02B6C636115
:101060002A462369214601209847082808D1296C7F
:101070002046FFF769FF06460028EFD00AF073FB11
:101080000728FBD13046296CFFF7E2FF281D00F04E
:10109000F3FB00BF2DE9F0470C1D054692460FCC2F
:1010A000ADF5727D03AE0FC60FCC0FC60FCC0FC6C9
:1010B00094E80F0002ACD5F80C80D5F8189086E8BB
:1010C0000F0000232846216C2360FFF73DFFBAF193
:1010D000000F074614BF0A2609267FB1A36B46F00E
:1010E00010018DE810022A46636401202B46C04798
:1010F00078BB38460DF5727DBDE8F087236C6B61D7
:101100004FF4F07221467AA809F0B6FA2B697AAA50
:10111000294630469847889B82468DE81002314622
:1011200063642A462B460120C04790B94FF4F07201
:101130007AA9204609F0A0FABAF1080F06D1216C6D
:101140002846FFF701FF09260746C6E7BAF1070F51
:1011500005D0092738460DF5727DBDE8F087384681
:10116000216CFFF775FF03A800F086FB406C704709
:10117000F0B5CB6B0B640E1D0F4604460FCEF9B0D5
:1011800001AD0FC50FCE0FC50FCE0FC596E80F00EE
:101190004FF0FF3685E80F00009606E023696A46A7
:1011A000214698470828054608D110992046FFF7A0
:1011B000CBFE0028F2D0092079B0F0BD6846FFF7D9
:1011C00013FF062DF7D139462046FFF743FF00BF36
:1011D00030B4DD6BC160826119461D64002230BCF1
:1011E00058E700BF70B5C66843690B6426B1012299
:1011F000FFF750FF0AF0B7FA03690A4604460D46A6
:10120000014602209847072807D0082803D129461D
:101210002046FFF71FFF0AF0A6FA3046296CFFF7B9
:1012200017FF281D00F028FBC2681AB1CA6B0A64B8
:1012300000222FE79CE700BF704700BF836813B10F
:10124000014601201847704700B5042907D8DFE898
:1012500001F00309060909000BB90F2A05D902207C
:101260005DF804FB01205DF804FB00EB82021846E8
:101270005368019A13605DF804FB00BF10B584B099
:10128000002303AC0A4600941946FFF7DDFF0398DC
:1012900004B010BD00B5042907D8DFE801F0030948
:1012A000060909000BB90F2A05D902205DF804FBD5
:1012B00001205DF804FB019900EB8202096851608E
:1012C00018465DF804FB00BF10B584B004AC0023E1
:1012D00044F8042D0A4600941946FFF7DBFF04B0DA
:1012E00010BD00BFF0B5D36B1364151D07460E4645
:1012F0000FCDADF50F7D17AC0FC40FCD0FC40FCDC3
:101300000FC495E80F004FF0FF3584E80F001695E5
:1013100010E016A8FFF7D8FF314616A8B84716AA5E
:10132000694678B9049B08209847052804460AD0E6
:10133000092807D026996846FFF706FE6A460C2161
:101340000028E6D0092416A8FFF74EFE20460DF52A
:101350000F7DF0BD2DE9F04F0D46C96C8BB00C1D13
:10136000096807919146089400F0030B1E46002B74
:1013700060D10902032307918DF825608DF8243090
:101380002B6DBBF1020F08BFAC6B13F0010340D112
:10139000019300F008030393D4F80080B8F1000F24
:1013A00039D0022E43D0B4F8008067880434AB6C87
:1013B00027F0010A0F2148469A44FFF75FFF824554
:1013C00033D828F001039A4450452CBF0020012057
:1013D0007F0007F0020708F0010847EA0807012F1D
:1013E0003ED035D3022F1CD1236823F00042029255
:1013F000BBF1000F76D128B1039900297ED0002AD5
:1014000000F0A680002B77DB029B013304EB830402
:10141000C2E700230193022E3EDDFFF717FE0028EE
:1014200040D009200BB0BDE8F08F0020D0E76768FE
:101430000834BCE7022BA3DC0B0CDAB209048DF8EC
:101440002530022304EB820407918DF8243097E7BE
:10145000BBF1000F02D0002840F0BD8004349BE7B0
:10146000BBF1000F25D1A8B194E80C00991C4FEAFC
:10147000D272D6D005F158010133069100F0A38055
:10148000201DFFF7DDFD06AB01462846AFF30080C7
:10149000002877D108347FE707A9484600F0EEFA24
:1014A0000028BED1019B002B5CD108200BB0BDE809
:1014B000F08F0D2148462F6AFFF7E0FE8742E9D101
:1014C000AB6A9C42E6D12046FFF7F0FC0F210246B2
:1014D0004846FFF7F9FE48462A460021FFF7F4FE8A
:1014E00007209FE70D2148462F6AFFF7C7FE874276
:1014F00058D02368002B87DA043485E7029B3BB37E
:1015000005F15803271DCDF810B0DDF80C80DDF88B
:1015100008A00596A3461C4602E0B245B04616D088
:1015200038460694FFF78CFD06AB0146002228469C
:10153000AFF3008008F1010604370028EDD0029BCC
:10154000059E43455C46DDF810B0D2D100E05C4614
:1015500048460D21FFF792FE069B2862AC626B6243
:1015600006205FE70F214846FFF788FE0E2102465E
:101570004846FFF7A9FE4846294A0F21FFF7A4FE77
:1015800007204FE707460D214846FFF777FE022F59
:1015900028621DD12B46069A43F82C2F6B62AC6251
:1015A00006203FE7AB6A9C42A3D104220027A31880
:1015B0000299A962EF622A636B632368BB421DDB59
:1015C0000123019320E748460D21FFF757FE2862CB
:1015D000069B6B62E3E72046FFF768FC043406468F
:1015E000AC632846AFF3008000283FF41AAF4846AA
:1015F00032460F21FFF768FE072013E70846013047
:1016000004EB8000FFF752FC0F2102464846FFF72B
:101610005BFE48462A463946FFF756FE072001E79B
:1016200000000000002395E6012393E6022391E6E3
:10163000F0B50446C5B004290DD8DFE801F0530326
:101640000C310F00012B4FEA124695B262D172198C
:10165000102A40F29B80022045B0F0BD002BFAD149
:10166000102AF8D82368D80600F1C68022AE30468A
:10167000019200F073F9A06B019A0023012505FA8D
:1016800003F1114203D0016846F8231004300133FE
:10169000042BF4D1A063304600F056F90020DBE7BC
:1016A000032BD8D1150C97B2EB19102BD3D8236884
:1016B0001E0700F1B58022AE304600F023F9ED00A0
:1016C000A36B4FB1043D711903EBC70053F8042B12
:1016D00041F8042F8342F9D13046A36300F0F0F8BB
:1016E0000020B9E7002BB6D1A56B97B2201D0126CB
:1016F00006FA03F1394203F1010302D029680160BF
:101700000435102B00F10400F2D112F400503BD14B
:10171000A563A1E7052B9ED17719202F9BD80F2E0B
:1017200066D92F46002D3AD12A460027002AA06B01
:1017300072DD00EBC202014644A800EBC6008C3803
:1017400051F8045B40F8045F9142F9D1084697B123
:10175000102E324644A938BF102201EBC202A2F576
:10176000C4727900043A00EB810150F8045B42F83E
:10177000045F8842F9D1012B48D00F2EA16333D9E1
:1017800017B102A800F094F8002065E70F2E3FF68D
:1017900062AF00272268D10717D4002F60D02268DB
:1017A000510745D4012B4DD00F2E06D822A8019306
:1017B00000F07AF8019B002FB6D002A8019300F048
:1017C0007BF8019BC6F11002B0E722F00101052B66
:1017D0002160019320463BD022F0030240F8482BC1
:1017E00000F05AF8019BD8E722A800F059F8C7E7A3
:1017F000102FCED9103FCDE723F01003236004F55E
:10180000E870019200F0AAF8019A2FE70431A16371
:1018100022A800F03DF8B7E7002F99D10146AAE7CA
:1018200023F00803236004F5A87000F06BF842E78A
:10183000204622F0040240F8D02B019300F03CF83F
:10184000019BAFE722A8019300F026F8019BB9E7BE
:1018500041F0020140F8481B00F026F8019B9CE78C
:10186000012B03D00F2E3FF65FAF9FE722A8019315
:1018700000F012F8019B57E700F1340191E83800BD
:101880009C46A6464CF8045D90E8FF0FE54600BD77
:1018900090EC210B704700BF80EC210B704700BF1C
:1018A00090EC200B704700BF80EC200B704700BF0E
:1018B000D0EC200B704700BFC0EC200B704700BF7E
:1018C000F0EC0201F0EC0211F0EC0221F0EC02313C
:1018D000F0EC0241F0EC0251F0EC0261F0EC02712C
:1018E000F0EC0281F0EC0291F0EC02A1F0EC02B11C
:1018F000F0EC02C1F0EC02D1F0EC02E1F0EC02F10C
:10190000704700BFE0EC0201E0EC0211E0EC0221C4
:10191000E0EC0231E0EC0241E0EC0251E0EC02616B
:10192000E0EC0271E0EC0281E0EC0291E0EC02A15B
:10193000E0EC02B1E0EC02C1E0EC02D1E0EC02E14B
:10194000E0EC02F1704700BFB0FC0181B0FC0191F6
:10195000B0FC01A1B0FC01B1704700BFA0FC018147
:10196000A0FC0191A0FC01A1A0FC01B1704700BF47
:10197000EC4600B52DE900502DE9FF1F4FF00003A4
:101980002DE90C0001A9FFF7F3FBDDF840E012B0F0
:10199000704700BFEC4600B52DE900502DE9FF1F50
:1019A0004FF000032DE90C0001A9FFF71BFCDDF847
:1019B00040E012B0704700BFEC4600B52DE9005082
:1019C0002DE9FF1F4FF000032DE90C0001A9FFF7DF
:1019D0002BFCDDF840E012B0704700BFEC4600B5CC
:1019E0002DE900502DE9FF1F4FF000032DE90C00F9
:1019F00001ABFFF7EDFBDDF840E012B0704700BF30
:101A0000EC4600B52DE900502DE9FF1F4FF0000313
:101A10002DE90C0001AAFFF765FCDDF840E012B0EB
:101A2000704700BF027A1AB9437A43B9B0207047B1
:101A30000368013A02721A020260180E7047426887
:101A4000013B10B4437213680321141D01721A0282
:101A5000446002605DF8044B180E704700B585B015
:101A600003AA0023009219460C22FFF7EDFB03980E
:101A700005B05DF804FB00BFF0E700BF2DE9F043BF
:101A8000064685B00F464FF000083846FFF7CAFFFC
:101A9000B028044623D0050627D400230DF10C09F5
:101AA000194685000D22CDF800903046FFF7CCFB9B
:101AB000EDB2039BCDF80090600605F104054CBF24
:101AC0005D1BED18002319460D2230460395FFF7E4
:101AD000E1FB3846FFF7A6FFB0280446DBD1B8F19A
:101AE000000F00F0958000201CE000F0F003802B38
:101AF0005DD0902B19D0A02B2CD0B02B3FD0C02B79
:101B00006CD000F0F803D02B0BD100F007020132AB
:101B100042F40022052301213046FFF789FD002809
:101B2000B3D0092005B0BDE8F08300F00D030D2B04
:101B3000F7D003AD002300F00F02194600953046A0
:101B4000FFF782FB0023009519460D223046FFF770
:101B5000A1FB9AE7C24302F007034FF47F621A41E8
:101B6000010702F47F624FF0000348BF42F4804255
:101B700019463046FFF75CFD0028D2D185E7B12831
:101B800057D0B22868D0B32800F0958000F0FC034D
:101B9000B42BC6D000F007020132012342F4002228
:101BA00019463046FFF744FD0028BAD16DE73846A4
:101BB000FFF738FF24020443B4F5004FB1D02401ED
:101BC0000023A2B219463046FFF732FD0028A8D103
:101BD00014F4004F18BF4FF0010856E7C6287DD017
:101BE000C72800F0868000F0F803C02B00F0948036
:101BF000C82800F09F80C92893D13846FFF712FF0C
:101C0000020300F00F0002F470220130024381E76A
:101C100003AC43460E22414600943046FFF714FBC6
:101C20000094304643460F224146FFF733FB4046BF
:101C300078E73846FFF7F6FE00283FF472AF10F061
:101C4000F0037FF46EAF024619463046FFF7F0FC12
:101C500000287FF466AF18E700230DF10C090D2270
:101C60001946CDF800903046FFF7EEFA3846FFF7F8
:101C7000D9FE02064FF002040CD5039B00F07F0052
:101C8000A040034438460393FFF7CCFE030604F15B
:101C90000704F2D4039BCDF8009000F07F02A2402D
:101CA00003F501740023144419460D2230460394B1
:101CB000FFF7F0FAE9E63846FFF7B4FE010300F05B
:101CC0000F0001F47021421C01230A4330461946DB
:101CD000FFF7AEFC00287FF424AFD6E63846FFF7C6
:101CE000A1FE010300F00F0001F47021421C032348
:101CF000EBE73846FFF796FE00283FF412AF10F0EE
:101D0000F0037FF40EAF024604213046FFF790FC4B
:101D100000287FF406AFB8E600F00F02013203237B
:101D200042F4202219463046FFF782FC00287FF457
:101D3000F8AEAAE63846FFF775FE00F0F00200F0B4
:101D40000F031032013343EA0232E3E610B5C36CED
:101D500084B05A6803208DF80C00DC798DF80D40B2
:101D600012020833084601A901920293FFF786FE8A
:101D700004B010BD08B5FFF77FFE806C08BD00BF42
:101D800008B5FFF779FEC06CC37900EB830008301B
:101D900008BD00BF08B509F0E6FC00BF08B5FFF7B5
:101DA000F9FF00BF704700BF80B500AF084A084B7D
:101DB0001B6843F010031360032001F093FE002022
:101DC00000F008F805F06EFC0023184680BD00BF47
:101DD0000020024080B582B000AF7860124B1A68D4
:101DE000124B1B7819464FF47A73B3FBF1F3B2FB35
:101DF000F3F3184601F0ABFE0346002B01D001239C
:101E00000EE07B680F2B0AD8002279684FF0FF3074
:101E100001F073FE064A7B681360002300E0012393
:101E200018460837BD4680BD080000200400002089
:101E30000000002080B400AF064B1B781A46064B0A
:101E40001B681344044A136000BFBD465DF8047B61
:101E5000704700BF040000201C07002080B400AFC2
:101E6000034B1B681846BD465DF8047B704700BFF6
:101E70001C07002080B483B000AF786000BF0C372F
:101E8000BD465DF8047B704780B483B000AF7860D6
:101E900000BF0C37BD465DF8047B704780B483B04B
:101EA00000AF786000BF0C37BD465DF8047B70471B
:101EB00080B59CB000AF7860002387F86F300023B6
:101EC000BB660023FB607B68002B01D1012370E11E
:101ED0007B681B69002B7B685B6C03F01003002B95
:101EE00076D17B685B6C002B52D17B6800229A64B0
:101EF0007B6800221A657B680022DA647B68002216
:101F000083F84020786804F07DFF7B681B689B683D
:101F100003F08053002B3BD1786800F079FE034634
:101F200087F86F307B685B6C03F01003002B2FD1B8
:101F300097F86F30002B2BD17B685B6C23F48853B0
:101F400023F0020343F002027B685A647B681B683B
:101F50007A681268926822F040529A607B681B6827
:101F60007A681268926842F080529A60934B1B68BC
:101F7000934AA2FB03239A0C13469B0013445B0075
:101F8000FB6002E0FB68013BFB60FB68002BF9D1C2
:101F90007B681B689B6803F08053002B07D07B682D
:101FA0001B689B6803F00053B3F1005F10D17B689E
:101FB0005B6C23F0120343F010027B685A647B6869
:101FC0009B6C43F001027B689A64012387F86F30B1
:101FD0007B685B6C03F01003002B40F0DD8097F80A
:101FE0006F30002B40F0D8807B681B689B6803F043
:101FF0000403002B40F0D0807B685B6C23F481737A
:1020000043F002027B685A646E4B7B667B681B68F8
:10201000B3F1A04F02D16C4B3B6102E04FF0A04303
:102020003B617B681B689B6803F00303012B08D1AD
:102030007B681B681B6803F00103012B01D101239E
:1020400000E00023002B1CD13B69002B10D03B6922
:102050009B6803F00303012B07D13B691B6803F066
:102060000103012B01D1012300E00023002B08D143
:102070007B6E9B6823F440327B685B681A437B6EFF
:102080009A607B68DB695A037B689B6B012B02D0EB
:102090004FF4805300E000231A437B68DB681A4347
:1020A0007B689B681343BA6E1343BB667B685B6AAD
:1020B000012B1BD17B68DB69002B09D17B689B6AF4
:1020C000013B5A04BB6E134343F48033BB660DE0FF
:1020D0007B685B6C23F0220343F020027B685A6428
:1020E0007B689B6C43F001027B689A647B68DB6AC7
:1020F000012B07D07B68DA6A7B681B6B1343BA6ECF
:102100001343BB667B681B689B6803F00C03002BC2
:1021100013D17B681A687B681B68DB6823F48043F3
:1021200023F00203D3607B689B699A037B685B6B37
:102130005B001343BA6E1343BB667B681A687B6807
:102140001B68D968214B0B40B96E0B43D3607B6889
:102150001B69012B0CD17B681B687A681268126BB3
:1021600022F00F017A68126A013A0A431A6307E003
:102170007B681B687A681268126B22F00F021A6380
:102180007B6800229A647B685B6C23F0030343F056
:1021900001027B685A640AE07B685B6C23F01203DF
:1021A00043F010027B685A64012387F86F3097F878
:1021B0006F3018467037BD4680BD00BF0800002054
:1021C00083DE1B43000300500001005007C0F0FFF6
:1021D00080B586B000AFF860B9607A600023FB7507
:1021E000FB681B689B6803F00403002B40F0B98078
:1021F000FB6893F84030012B01D10223B4E0FB6867
:10220000012283F840205A4B9B6803F01F03002BE8
:1022100040F0A080F86800F09DFC0346FB75FB7D54
:10222000002B40F09280FB685B6C23F4706323F01A
:10223000010343F48072FB685A644D4B9B6803F0C2
:102240001F03002B04D0FB681B68B3F1A04F15D10E
:10225000FB685B6C23F48012FB685A64FB681B68A4
:10226000DB6803F00073002B27D0FB685B6C23F462
:10227000405343F48052FB685A641EE0FB685B6C79
:1022800043F48012FB685A64FB681B68B3F1A04FEB
:1022900004D0FB681B68374A93420ED14FF0A0432D
:1022A000DB6803F00073002B07D0FB685B6C23F442
:1022B000405343F48052FB685A64FB685B6C03F440
:1022C0008053B3F5805F06D1FB689B6C23F0060258
:1022D000FB689A6402E0FB6800229A64FB680022B3
:1022E00083F84020FB68DB6B234A9A62FB68DB6B58
:1022F000224ADA62FB68DB6B214A1A63FB681B68BF
:102300001C221A60FB681B68FA681268526842F067
:1023100010025A60FB681B68FA681268D26842F0C3
:102320000102DA60FB68D86BFB681B684033194612
:10233000BA687B6801F05EFCFB681B68FA6812688B
:10234000926842F004029A600DE0FB68002283F874
:10235000402008E00123FB75FB68002283F8402041
:1023600001E00223FB75FB7D18461837BD4680BD92
:102370000003005000010050892A0008032B0008C8
:102380001F2B000890B49CB000AF78603960002328
:1023900087F86F300023FB607B6893F84030012B97
:1023A00001D10223A3E27B68012283F840207B68ED
:1023B0001B689B6803F00403002B40F087823B6896
:1023C0005B68042B1CD87B6819687B681B68186BDA
:1023D0003B685A6813465B0013445B001A461F2390
:1023E0009340DB4318403B681C683B685A681346BF
:1023F0005B0013445B0004FA03F303430B6363E0E5
:102400003B685B68092B1ED87B6819687B681B6872
:10241000586B3B685A6813465B0013445B001E3BD5
:102420001F2202FA03F3DB4318403B681C683B6839
:102430005A6813465B0013445B001E3B04FA03F327
:1024400003434B6340E03B685B680E2B1ED87B6800
:1024500019687B681B68986B3B685A6813465B0079
:1024600013445B003C3B1F2202FA03F3DB4318409A
:102470003B681C683B685A6813465B0013445B006A
:102480003C3B04FA03F303438B631DE07B6819684C
:102490007B681B68D86B3B685A6813465B00134423
:1024A0005B005A3B1F2202FA03F3DB4318403B68F0
:1024B0001C683B685A6813465B0013445B005A3B38
:1024C00004FA03F30343CB637B681B689B6803F048
:1024D0000C03002B40F0E5803B681B68092B1CD9DE
:1024E0007B6819687B681B6898693B681A681346A3
:1024F0005B0013441E3B072202FA03F3DB43184040
:102500003B689C683B681A6813465B0013441E3B9B
:1025100004FA03F303438B6119E07B6819687B6855
:102520001B6858693B681A6813465B00134407220E
:1025300002FA03F3DB4318403B689C683B681A6867
:1025400013465B00134404FA03F303434B613B68F7
:102550005A697B681B68DB68DB0803F003035B00D8
:1025600002FA03F3BB663B681B69013B032B4FD8A0
:1025700001A252F823F000BF89250008AB2500080E
:10258000CD250008EF2500087B681A687B681B686A
:10259000196E9C4B0B40396809688806B96E014377
:1025A0000B4343F0004313667BE07B681A687B684B
:1025B0001B68596E934B0B40396809688806B96EE1
:1025C00001430B4343F0004353666AE07B681A689B
:1025D0007B681B68996E8B4B0B40396809688806CD
:1025E000B96E01430B4343F00043936659E07B68A7
:1025F0001A687B681B68D96E824B0B403968096882
:102600008806B96E01430B4343F00043D36648E0AC
:102610007B681B681B6E03F0F8423B681B689B06D7
:102620009A4207D17B681B687A681268126E22F0A2
:1026300000421A667B681B685B6E03F0F8423B68D9
:102640001B689B069A4207D17B681B687A681268F0
:10265000526E22F000425A667B681B689B6E03F044
:10266000F8423B681B689B069A4207D17B681B684F
:102670007A681268926E22F000429A667B681B6844
:10268000DB6E03F0F8423B681B689B069A4207D159
:102690007B681B687A681268D26E22F00042DA66A4
:1026A00000BF7B681B689B6803F00303012B08D104
:1026B0007B681B681B6803F00103012B01D1012318
:1026C00000E00023002B40F00C813B68DB68012B0D
:1026D0000FD07B681B687A681268D2F8B0103A682D
:1026E0001268012000FA02F2D2430A40C3F8B02077
:1026F0004AE07B681B687A681268D2F8B0103A68C2
:102700001268012000FA02F20A43C3F8B0203B68C5
:102710001B68092B1CD97B6819687B681B68986942
:102720003B681A6813465B0013441B3B072202FAFE
:1027300003F3DB4318403B689C683B681A68134608
:102740005B0013441B3B04FA03F303438B611BE060
:102750007B6819687B681B6858693B681B685A1C52
:1027600013465B001344072202FA03F3DB431840CD
:102770003B689C683B681B685A1C13465B0013440B
:1027800004FA03F303434B611F4B7B663B681B68F2
:10279000102B05D17B6E9B6803F40003002B15D032
:1027A0003B681B68112B05D17B6E9B6803F080731F
:1027B000002B0BD03B681B68122B40F092807B6E85
:1027C0009B6803F48003002B40F08B807B681B68C0
:1027D000B3F1A04F02D10D4B3B6102E04FF0A0439B
:1027E0003B617B681B689B6803F00303012B0FD1DF
:1027F0007B681B681B6803F00103012B08D10123D0
:1028000007E000BF00F0FF8300030050000100500C
:102810000023002B50D13B69002B10D03B699B68F3
:1028200003F00303012B07D13B691B6803F001038D
:10283000012B01D1012300E00023002B3CD13B6898
:102840001B68102B1DD17B681B68B3F1A04F18D1FA
:102850007B6E9B6843F400027B6E9A60264B1B687C
:10286000264AA2FB03239A0C13469B0013445B00E9
:10287000FB6002E0FB68013BFB60FB68002BF9D1C9
:102880002EE03B681B68112B0BD17B681B68B3F1F2
:10289000A04F06D17B6E9B6843F080727B6E9A607E
:1028A0001EE03B681B68122B1AD17B6E9B6843F4B9
:1028B00080027B6E9A6013E07B685B6C43F02002C1
:1028C0007B685A64012387F86F300AE07B685B6C91
:1028D00043F020027B685A64012387F86F3000E0E0
:1028E00000BF7B68002283F8402097F86F301846BD
:1028F0007037BD4690BC70470800002083DE1B4344
:1029000080B49BB000AF78603960002387F86730EF
:102910007B681B68B3F1A04F02D1594BFB6002E00A
:102920004FF0A043FB60FB68002B01D10123A1E025
:102930007B6893F84030012B01D102239AE07B6839
:10294000012283F840207B681B689B6803F0040326
:10295000002B7ED1FB689B6803F00403002B78D129
:10296000484B3B663B681B68002B3FD03B6E9B6827
:1029700023F460423B6859687B685B6B5B030B43E5
:102980001A433B6E9A607B681B689B6803F00303E5
:10299000012B08D17B681B681B6803F00103012B26
:1029A00001D1012300E00023002B5CD1FB689B6870
:1029B00003F00303012B07D1FB681B6803F001033D
:1029C000012B01D1012300E00023002B4BD13B6EF2
:1029D0009B6823F4716323F00F033A6811683A6827
:1029E00092680A431A433B6E9A603CE03B6E9B68D8
:1029F00023F460423B6E9A607B681B689B6803F01F
:102A00000303012B08D17B681B681B6803F00103DB
:102A1000012B01D1012300E00023002B23D1FB680F
:102A20009B6803F00303012B07D1FB681B6803F0CD
:102A30000103012B01D1012300E00023002B12D15F
:102A40003B6E9B6823F4716323F00F033A6E93602F
:102A500009E07B685B6C43F020027B685A640123C9
:102A600087F8673000E000BF7B68002283F84020D1
:102A700097F8673018466C37BD465DF8047B7047A1
:102A8000000100500003005080B584B000AF7860B2
:102A90007B685B6AFB60FB685B6C03F05003002B98
:102AA00026D1FB685B6C43F40072FB685A64FB68D8
:102AB0001B68DB6803F44063002B15D1FB68DB69FE
:102AC000002B11D1FB685B6C23F48072FB685A64A5
:102AD000FB685B6C03F48053002B05D1FB685B6CD7
:102AE00043F00102FB685A64F868FFF7C3F904E099
:102AF000FB68DB6B1B6B7868984700BF1037BD46DF
:102B000080BD80B584B000AF78607B685B6AFB6095
:102B1000F868FFF7B9F900BF1037BD4680BD80B532
:102B200084B000AF78607B685B6AFB60FB685B6CBD
:102B300043F04002FB685A64FB689B6C43F004025C
:102B4000FB689A64F868FFF7A9F900BF1037BD4623
:102B500080BD000080B584B000AF78600023FB60CA
:102B60007B681B689B6803F00303012B08D17B681B
:102B70001B681B6803F00103012B01D1012300E056
:102B80000023002B3CD17B681B689A681F4B1340C5
:102B9000002B0DD07B685B6C43F010027B685A649D
:102BA0007B689B6C43F001027B689A64012328E0F8
:102BB0007B681B687A681268926842F001029A602A
:102BC000FFF74CF9F86014E0FFF748F90246FB689C
:102BD000D31A022B0DD97B685B6C43F010027B6823
:102BE0005A647B689B6C43F001027B689A64012302
:102BF00007E07B681B681B6803F00103012BE3D12E
:102C0000002318461037BD4680BD00BF3F0000803E
:102C100080B584B000AF78600023FB607B681B68E0
:102C20009B6803F00303012B08D17B681B681B68BA
:102C300003F00103012B01D1012300E00023002B4D
:102C400040D07B681B689B6803F00D03012B0FD1FC
:102C50007B681B687A681268926842F002029A6088
:102C60007B681B6803221A60FFF7F8F8F86022E01F
:102C70007B685B6C43F010027B685A647B689B6CDA
:102C800043F001027B689A6401231CE0FFF7E6F839
:102C90000246FB68D31A022B0DD97B685B6C43F0AC
:102CA00010027B685A647B689B6C43F001027B686E
:102CB0009A64012307E07B681B689B6803F00103AB
:102CC000012BE3D0002318461037BD4680BD80B5E8
:102CD00084B000AF78607B68002B01D10123ECE069
:102CE0007B6893F82030DBB2002B02D1786804F0C7
:102CF00095F97B681B687A681268126822F00202F4
:102D00001A60FFF7ABF8F86012E0FFF7A7F8024689
:102D1000FB68D31A0A2B0BD97B685B6A43F4003239
:102D20007B685A627B68052283F820200123C4E077
:102D30007B681B685B6803F00203002BE5D17B68AE
:102D40001B687A681268126842F001021A60FFF785
:102D500085F8F86012E0FFF781F80246FB68D31AA5
:102D60000A2B0BD97B685B6A43F400327B685A629A
:102D70007B68052283F8202001239EE07B681B6886
:102D80005B6803F00103002BE5D07B681B7E012B01
:102D900008D17B681B687A681268126842F080026A
:102DA0001A6007E07B681B687A681268126822F074
:102DB00080021A607B685B7E012B08D17B681B68F0
:102DC0007A681268126842F040021A6007E07B6875
:102DD0001B687A681268126822F040021A607B68E9
:102DE0009B7E012B08D17B681B687A681268126889
:102DF00042F020021A6007E07B681B687A6812685C
:102E0000126822F020021A607B68DB7E012B08D159
:102E10007B681B687A681268126822F010021A60D8
:102E200007E07B681B687A681268126842F010023B
:102E30001A607B681B7F012B08D17B681B687A684E
:102E40001268126842F008021A6007E07B681B688B
:102E50007A681268126822F008021A607B685B7F49
:102E6000012B08D17B681B687A681268126842F0EF
:102E700004021A6007E07B681B687A6812681268AF
:102E800022F004021A607B681B687A6891687A688D
:102E9000D26811437A68126911437A685269114302
:102EA0007A685268013A0A43DA617B6800225A6202
:102EB0007B68012283F82020002318461037BD4686
:102EC00080BD80B487B000AF786039607B681B68D4
:102ED0007B617B6893F82030FB74FB7C012B03D073
:102EE000FB7C022B40F0AA807B69D3F8003243F0D0
:102EF00001027B69C3F800223B685B6903F01F0392
:102F0000012202FA03F3FB607B69D3F81C22FB6801
:102F1000DB431A407B69C3F81C223B68DB69002B4A
:102F200023D17B69D3F80C22FB68DB431A407B6911
:102F3000C3F80C223B685A693B68DB6819043B689C
:102F40005B689BB219437B69483243F832103B6897
:102F50005B693A68926811043A68126892B20A434F
:102F600079694833DB000B445A603B68DB69012B0D
:102F700022D17B69D3F80C22FB681A437B69C3F822
:102F80000C223B685A693B681B6819043B685B6804
:102F90009BB219437B69483243F832103B685B6946
:102FA0003A68926811043A68D26892B20A43796921
:102FB0004833DB000B445A603B689B69002B09D106
:102FC0007B69D3F80422FB68DB431A407B69C3F8B2
:102FD000042207E07B69D3F80422FB681A437B696B
:102FE000C3F804223B681B69002B09D17B69D3F825
:102FF0001422FB68DB431A407B69C3F8142207E004
:103000007B69D3F81422FB681A437B69C3F8142246
:103010003B681B6A012B07D17B69D3F81C22FB6834
:103020001A437B69C3F81C227B69D3F8003223F072
:1030300001027B69C3F80022002306E07B685B6A1B
:1030400043F480227B685A62012318461C37BD4630
:103050005DF8047B704780B584B000AF78607B6812
:1030600093F82030DBB2012B2ED17B68022283F84B
:1030700020207B681B687A681268126822F00102BF
:103080001A60FEF7EBFEF86012E0FEF7E7FE02467C
:10309000FB68D31A0A2B0BD97B685B6A43F40032B6
:1030A0007B685A627B68052283F82020012312E0A6
:1030B0007B681B685B6803F00103002BE5D17B682C
:1030C00000225A62002306E07B685B6A43F4002218
:1030D0007B685A62012318461037BD4680BD80B414
:1030E00089B000AFF860B9607A603B60FB6893F824
:1030F0002030FB77FB681B689B68BB61FB7F012B63
:1031000003D0FB7F022B40F0B480BB6903F08063E7
:10311000002B0AD1BB6903F00063002B05D1BB690A
:1031200003F08053002B00F09C80BB691B0E03F062
:1031300003037B617B69022B07D9FB685B6A43F45D
:103140000002FB685A6201239AE001227B699A40DF
:103150003B681A60BB689B68002B0DD1FB6819683F
:10316000BB681B685A05BB68DB681A437B69183368
:103170001B010B441A600FE0FB681968BB685B68B1
:10318000DA00BB689B681A43BB68DB681A437B693B
:1031900018331B010B441A60FB681968BB681A6975
:1031A0007B6918331B010B4404331A60BB681B7D19
:1031B000012B11D1FB681968FB681A687B69183309
:1031C0001B01134404331B6843F480727B6918337A
:1031D0001B010B4404331A60FB6819687B680733D2
:1031E0001B781A067B6806331B781B041A437B681E
:1031F00005331B781B0213437A68043212781A4392
:103200007B691B010B4403F5C6731A60FB681968E0
:103210007B6803331B781A067B6802331B781B0418
:103220001A437B6801331B781B0213437A681278B8
:103230001A437B691B010B4403F5C4731A60FB68D6
:103240001968FB681A687B6918331B0113441B68F3
:1032500043F001027B6918331B010B441A60002301
:103260000EE0FB685B6A43F40012FB685A620123BC
:1032700006E0FB685B6A43F48022FB685A62012324
:1032800018462437BD465DF8047B704780B487B08C
:1032900000AFF860B9607A603B60FB6893F820305B
:1032A000FB75FB7D012B03D0FB7D022B40F0F480EE
:1032B000BB68002B0ED1FB681B68DB6803F00303BF
:1032C000002B16D1FB685B6A43F40012FB685A625C
:1032D0000123E8E0FB681B681B6903F00303002B74
:1032E00007D1FB685B6A43F40012FB685A62012352
:1032F000D9E0FB681A68BB681B331B0113441B68C9
:1033000003F004027B689A607B689B68002B0CD1F9
:10331000FB681A68BB681B331B0113441B685B0DF9
:10332000C3F30A027B681A600BE0FB681A68BB688B
:103330001B331B0113441B68DB0823F060427B68CE
:103340005A60FB681A68BB681B331B0113441B6877
:103350005B0803F001027B68DA60FB681A68BB68EF
:103360001B331B01134404331B6803F00F027B68FB
:103370001A61FB681A68BB681B331B0113440433D2
:103380001B681B0ADAB27B689A61FB681A68BB6823
:103390001B331B01134404331B681B0C9AB27B685C
:1033A0005A61FB681A68BB681B01134403F5DC73A0
:1033B0001B68DAB23B681A703B680133FA6811681F
:1033C000BA6812010A4402F5DC721268120AD2B21B
:1033D0001A703B680233FA681168BA6812010A442D
:1033E00002F5DC721268120CD2B21A703B68033319
:1033F000FA681168BA6812010A4402F5DC721268B0
:10340000120ED2B21A703B680433FA681168BA68B7
:1034100012010A4402F5DE721268D2B21A703B68D9
:103420000533FA681168BA6812010A4402F5DE72BF
:103430001268120AD2B21A703B680633FA68116831
:10344000BA6812010A4402F5DE721268120CD2B296
:103450001A703B680733FA681168BA6812010A44A7
:1034600002F5DE721268120ED2B21A70BB68002B1F
:1034700008D1FB681B68FA681268D26842F0200223
:10348000DA6007E0FB681B68FA681268126942F0AC
:1034900020021A61002306E0FB685B6A43F4802285
:1034A000FB685A62012318461C37BD465DF8047B51
:1034B000704780B485B000AF786039607B6893F85E
:1034C0002030FB73FB7B012B02D0FB7B022B09D14D
:1034D0007B681B687A68126851693A680A435A61C6
:1034E000002306E07B685B6A43F480227B685A62B3
:1034F000012318461437BD465DF8047B704780B53C
:103500008AB000AF786000237B627B681B685B69D0
:103510003B627B681B685B68FB617B681B689B6820
:10352000BB617B681B68DB687B617B681B681B6910
:103530003B617B681B689B69FB603B6A03F001038E
:10354000002B7CD0BB6903F00103002B23D07B68E8
:103550001B6801229A60BB6903F00203002B03D0B1
:10356000786800F07DF916E0BB6903F00403002BD6
:1035700004D07B6A43F400637B620CE0BB6903F018
:103580000803002B04D07B6A43F480537B6202E083
:10359000786800F083F9BB6903F48073002B24D0B2
:1035A0007B681B684FF480729A60BB6903F40073F8
:1035B000002B03D0786800F05DF916E0BB6903F4D6
:1035C0008063002B04D07B6A43F400537B620CE0E1
:1035D000BB6903F40063002B04D07B6A43F480438F
:1035E0007B6202E0786800F063F9BB6903F4803322
:1035F000002B24D07B681B684FF480329A60BB6933
:1036000003F40033002B03D0786800F03DF916E096
:10361000BB6903F48023002B04D07B6A43F400438E
:103620007B620CE0BB6903F40023002B04D07B6AAF
:1036300043F480337B6202E0786800F043F93B6A30
:1036400003F00803002B0CD07B6903F01003002B60
:1036500007D07B6A43F400737B627B681B6810228F
:10366000DA603B6A03F00403002B0BD07B6903F0A4
:103670000803002B06D07B681B680822DA60786894
:1036800000F02AF93B6A03F00203002B09D07B68A3
:103690001B68DB6803F00303002B02D0786803F09B
:1036A00051F93B6A03F04003002B0CD03B6903F057
:1036B0001003002B07D07B6A43F480637B627B6836
:1036C0001B6810221A613B6A03F02003002B0BD009
:1036D0003B6903F00803002B06D07B681B680822B7
:1036E0001A61786800F00CF93B6A03F01003002BB4
:1036F00009D07B681B681B6903F00303002B02D011
:10370000786800F0F3F83B6A03F40033002B0BD029
:10371000FB6903F01003002B06D07B681B681022A6
:103720005A60786800F0F6F83B6A03F48033002BA7
:103730000BD0FB6903F00803002B06D07B681B68E5
:1037400008225A60786800F0EFF83B6A03F40043FF
:10375000002B75D0FB6903F00403002B6CD03B6A8F
:1037600003F48073002B08D0FB6803F00103002BE7
:1037700003D07B6A43F001037B623B6A03F400736E
:10378000002B08D0FB6803F00203002B03D07B6AF8
:1037900043F002037B623B6A03F48063002B08D092
:1037A000FB6803F00403002B03D07B6A43F004039F
:1037B0007B623B6A03F40063002B3DD0FB6803F09F
:1037C0007003002B38D0FB6803F07003302B17D048
:1037D000302B04D8102B09D0202B0CD024E0502BF8
:1037E00018D0602B1BD0402B0FD01DE07B6A43F01C
:1037F00008037B6218E07B6A43F010037B6213E0EE
:103800007B6A43F020037B620EE07B6A43F0400357
:103810007B6209E07B6A43F080037B6204E07B6AA1
:1038200043F480737B6200BF7B681B687A68126810
:10383000926922F070029A617B681B6804225A60C8
:103840007B6A002B08D07B685A6A7B6A1A437B68C4
:103850005A62786800F072F800BF2837BD4680BD14
:1038600080B483B000AF786000BF0C37BD465DF810
:10387000047B704780B483B000AF786000BF0C3722
:10388000BD465DF8047B704780B483B000AF7860BC
:1038900000BF0C37BD465DF8047B704780B483B031
:1038A00000AF786000BF0C37BD465DF8047B704701
:1038B00080B483B000AF786000BF0C37BD465DF8C0
:1038C000047B704780B483B000AF786000BF0C37D2
:1038D000BD465DF8047B704780B483B000AF78606C
:1038E00000BF0C37BD465DF8047B704780B483B0E1
:1038F00000AF786000BF0C37BD465DF8047B7047B1
:1039000080B483B000AF786000BF0C37BD465DF86F
:10391000047B704780B483B000AF786000BF0C3781
:10392000BD465DF8047B704780B483B000AF78601B
:1039300000BF0C37BD465DF8047B704780B483B090
:1039400000AF786000BF0C37BD465DF8047B704760
:1039500080B485B000AF78607B6803F00703FB603C
:103960000C4BDB68BB60BA684FF6FF031340BB60CB
:10397000FB681A02BB68134343F0BF6343F4003390
:10398000BB60044ABB68D36000BF1437BD465DF816
:10399000047B704700ED00E080B400AF044BDB68AF
:1039A0001B0A03F007031846BD465DF8047B704709
:1039B00000ED00E080B483B000AF0346FB7109491D
:1039C00097F907305B09FA7902F01F02012000FA2B
:1039D00002F241F8232000BF0C37BD465DF8047B9E
:1039E000704700BF00E100E080B483B000AF034641
:1039F0003960FB7197F90730002B0BDA0D49FB7921
:103A000003F00F03043B3A68D2B21201D2B20B4466
:103A10001A7609E0084997F907303A68D2B21201DC
:103A2000D2B20B4483F8002300BF0C37BD465DF8CB
:103A3000047B704700ED00E000E100E080B489B055
:103A400000AFF860B9607A60FB6803F00703FB61C0
:103A5000FB69C3F10703042B28BF0423BB61FB6987
:103A60000433062B02D9FB69033B00E000237B6192
:103A70000122BB6902FA03F35A1EBB681A407B6934
:103A80009A4001217B6901FA03F3591E7B680B40C0
:103A9000134318462437BD465DF8047B7047000089
:103AA00080B582B000AF78607B68013BB3F1807F66
:103AB00001D301230FE00A4A7B68013B53600F21C9
:103AC0004FF0FF30FFF790FF054B00229A60044B48
:103AD00007221A60002318460837BD4680BD00BF84
:103AE00010E000E080B582B000AF78607868FFF742
:103AF0002FFF00BF0837BD4680BD80B586B000AF40
:103B00000346B9607A60FB7300237B61FFF744FFD3
:103B100078617A68B9687869FFF790FF024697F98B
:103B20000F3011461846FFF75FFF00BF1837BD463C
:103B300080BD80B582B000AF0346FB7197F90730B6
:103B40001846FFF737FF00BF0837BD4680BD80B578
:103B500082B000AF78607868FFF7A2FF034618468E
:103B60000837BD4680BD80B584B000AF78600023C3
:103B7000FB607B68002B01D1012337E07B680222C8
:103B800083F821207B681B681B68FB60FB6823F4BB
:103B90007F5323F03003FB607B685A687B689B6827
:103BA0001A437B68DB681A437B681B691A437B688E
:103BB0005B691A437B689B691A437B68DB69134323
:103BC000FA681343FB607B681B68FA681A607868C0
:103BD00000F040F97B6800229A637B68012283F839
:103BE00021207B68002283F820200023184610370C
:103BF000BD4680BD80B586B000AFF860B9607A6020
:103C00003B600023FB75FB6893F82030012B01D14A
:103C100002234AE0FB68012283F82020FB6893F826
:103C20002130012B3AD1FB68022283F82120FB6866
:103C300000229A63FB681B68FA681268126822F017
:103C400001021A603B687A68B968F86800F0D4F835
:103C5000FB68DB6A002B08D0FB681B68FA681268F7
:103C6000126842F00E021A600FE0FB681B68FA68E7
:103C70001268126842F00A021A60FB681B68FA6850
:103C80001268126822F004021A60FB681B68FA6866
:103C90001268126842F001021A6005E0FB68002217
:103CA00083F820200223FB75FB7D18461837BD469C
:103CB00080BD80B584B000AF78607B68DB6B1B682B
:103CC000FB607B681B681B68BB607B681B6C042205
:103CD0009A40FB681340002B24D0BB6803F0040318
:103CE000002B1FD07B681B681B6803F02003002B90
:103CF00007D17B681B687A681268126822F0040298
:103D00001A607B68DB6B7A68126C042101FA02F29C
:103D10005A607B68DB6A002B6AD07B68DB6A786854
:103D2000984765E07B681B6C02229A40FB68134051
:103D3000002B2CD0BB6803F00203002B27D07B683C
:103D40001B681B6803F02003002B0BD17B681B68EA
:103D50007A681268126822F00A021A607B680122EF
:103D600083F821207B68DB6B7A68126C022101FAF0
:103D700002F25A607B68002283F820207B689B6AED
:103D8000002B35D07B689B6A7868984730E07B6869
:103D90001B6C08229A40FB681340002B28D0BB689C
:103DA00003F00803002B23D07B681B687A68126835
:103DB000126822F00E021A607B68DB6B7A68126C64
:103DC000012101FA02F25A607B6801229A637B6842
:103DD000012283F821207B68002283F820207B6861
:103DE0001B6B002B04D07B681B6B78689847FFE740
:103DF00000BF1037BD4680BD80B485B000AFF8600D
:103E0000B9607A603B60FB68DB6BFA68126C012179
:103E100001FA02F25A60FB681B683A685A60FB6854
:103E20005B68102B08D1FB681B687A689A60FB6896
:103E30001B68BA68DA6007E0FB681B68BA689A60BA
:103E4000FB681B687A68DA6000BF1437BD465DF80E
:103E5000047B704780B483B000AF78607B681B68D8
:103E60001A46094B1344094AA2FB03231B099A0073
:103E70007B681A647B68064ADA6300BF0C37BD466C
:103E80005DF8047B704700BFF8FFFDBFCDCCCCCC04
:103E90000000024080B487B000AF78603960002332
:103EA0007B610023FB6000233B614EE13B681A68A5
:103EB00001217B6901FA03F31340FB60FB68002BCF
:103EC00000F040813B685B68022B03D03B685B6875
:103ED000122B23D17B69DA087B68083253F8223031
:103EE0003B617B6903F007039B000F2202FA03F397
:103EF000DB433A6913403B613B681A697B6903F015
:103F000007039B0002FA03F33A6913433B617B69A1
:103F1000DA087B680832396943F822107B681B682D
:103F20003B617B695B00032202FA03F3DB433A69DE
:103F300013403B613B685B6803F003027B695B00F5
:103F400002FA03F33A6913433B617B683A691A60EA
:103F50003B685B68012B0BD03B685B68022B07D08A
:103F60003B685B68112B03D03B685B68122B30D138
:103F70007B689B683B617B695B00032202FA03F369
:103F8000DB433A6913403B613B68DA687B695B005D
:103F900002FA03F33A6913433B617B683A699A601A
:103FA0007B685B683B6101227B6902FA03F3DB43B8
:103FB0003A6913403B613B685B681B0903F00102EF
:103FC0007B6902FA03F33A6913433B617B683A6900
:103FD0005A607B68DB683B617B695B00032202FA05
:103FE00003F3DB433A6913403B613B689A687B69A2
:103FF0005B0002FA03F33A6913433B617B683A6959
:10400000DA603B685B6803F08053002B00F09A8015
:10401000554A554B9B6943F001039361524B9B6991
:1040200003F00103BB60BB68504A7B699B08023305
:1040300052F823303B617B6903F003039B000F229E
:1040400002FA03F3DB433A6913403B617B68B3F147
:10405000904F13D07B68464A93420DD07B68454A07
:10406000934207D07B68444A934201D1032306E080
:10407000052304E0022302E0012300E000237A6923
:1040800002F00302920093403A6913433B613749BF
:104090007B699B0802333A6941F82320374B1B6840
:1040A0003B61FB68DB433A6913403B613B685B68FB
:1040B00003F48033002B03D03A69FB6813433B6160
:1040C0002E4A3B6913602D4B5B683B61FB68DB4309
:1040D0003A6913403B613B685B6803F40033002B93
:1040E00003D03A69FB6813433B61244A3B69536040
:1040F000224B9B683B61FB68DB433A6913403B61A1
:104100003B685B6803F48013002B03D03A69FB68BB
:1041100013433B61194A3B699360184BDB683B6171
:10412000FB68DB433A6913403B613B685B6803F41F
:104130000013002B03D03A69FB6813433B610F4A1D
:104140003B69D3607B6901337B613B681A687B699B
:1041500022FA03F3002B7FF4A9AE00BF1C37BD4643
:104160005DF8047B704700BF001002400000014072
:104170000004004800080048000C0048000401400A
:1041800080B485B000AF78600B467B807B681A698D
:104190007B881340002B02D00123FB7301E0002336
:1041A000FB73FB7B18461437BD465DF8047B7047F4
:1041B00080B483B000AF78600B467B8013467B7081
:1041C0007B78002B03D07A887B689A6102E07A883A
:1041D0007B689A6200BF0C37BD465DF8047B704770
:1041E00080B483B000AF78600B467B807B685A69EF
:1041F0007B885A407B685A6100BF0C37BD465DF82A
:10420000047B704780B582B000AF78607B68002B7C
:1042100001D1012380E07B6893F84130DBB2002BB1
:1042200006D17B68002283F84020786803F020F8EC
:104230007B68242283F841207B681B687A681268B7
:10424000126822F001021A607B681B687A68526863
:1042500022F070621A617B681B687A681268926843
:1042600022F400429A607B68DB68012B07D17B68EF
:104270001B687A68926842F400429A6006E07B68A4
:104280001B687A68926842F404429A607B68DB6833
:10429000022B04D17B681B684FF400625A607B6874
:1042A0001A687B681B685B6843F0007343F4004343
:1042B00053607B681B687A681268D26822F40042F7
:1042C000DA607B681B687A6811697A685269114301
:1042D0007A68926912020A43DA607B681B687A681E
:1042E000D1697A68126A0A431A607B681B687A6827
:1042F0001268126842F001021A607B6800225A6458
:104300007B68202283F841207B6800221A637B6847
:10431000002283F84220002318460837BD4680BD9E
:1043200080B483B000AF786039607B6893F8413027
:10433000DBB2202B38D17B6893F84030012B01D1C0
:10434000022332E07B68012283F840207B6824222C
:1043500083F841207B681B687A681268126822F033
:1043600001021A607B681B687A681268126822F47E
:1043700080521A607B681B687A68126811683A6814
:104380000A431A607B681B687A681268126842F0F8
:1043900001021A607B68202283F841207B6800229A
:1043A00083F84020002300E0022318460C37BD4666
:1043B0005DF8047B704780B485B000AF78603960E9
:1043C0000023FB607B6893F84130DBB2202B39D1AE
:1043D0007B6893F84030012B01D1022333E07B68E6
:1043E000012283F840207B68242283F841207B68E7
:1043F0001B687A681268126822F001021A607B68F2
:104400001B681B68FB60FB6823F47063FB603B6800
:104410001B02FA681343FB607B681B68FA681A602A
:104420007B681B687A681268126842F001021A60A1
:104430007B68202283F841207B68002283F840209B
:10444000002300E0022318461437BD465DF8047BC4
:104450007047000080B5ADF5007D00AF3B1D1860D2
:104460003B1D1B68002B02D1012300F0DABE3B1D6F
:104470001B681B6803F00103002B00F06E81B54B35
:104480005B6803F00C03042B0CD0B24B5B6803F0A9
:104490000C03082B5AD1AF4B5B6803F48033B3F5A0
:1044A000803F53D14FF40033C7F8F431D7F8F431DB
:1044B00093FAA3F3C7F8F031D7F8F031B3FA83F3E6
:1044C000DBB25B09DBB243F00103DBB2012B02D1AB
:1044D000A04B1B6815E04FF40033C7F8EC31D7F858
:1044E000EC3193FAA3F3C7F8E8314FF40033C7F87F
:1044F000E431D7F8E43193FAA3F3C7F8E031954BF0
:104500005B6A4FF40032C7F8DC21D7F8DC2192FA5D
:10451000A2F2C7F8D821D7F8D821B2FA82F252B263
:1045200042F0200252B2D2B202F01F02012101FA7F
:1045300002F21340002B00F00F813B1D1B685B68EB
:10454000002B40F00981012300F06BBE3B1D1B686E
:104550005B68B3F5803F06D17E4A7E4B1B6843F40F
:104560008033136030E03B1D1B685B68002B0CD16F
:10457000784A784B1B6823F480331360754A754B77
:104580001B6823F4802313601EE03B1D1B685B68DF
:10459000B3F5A02F0CD16F4A6E4B1B6843F48023F8
:1045A00013606C4A6B4B1B6843F4803313600BE061
:1045B000684A684B1B6823F480331360654A654B77
:1045C0001B6823F4802313606249624BDB6A23F08B
:1045D0000F023B1D1B689B681343CB623B1D1B688E
:1045E0005B68002B5AD0FDF739FCC7F8F8010AE0E8
:1045F000FDF734FC0246D7F8F831D31A642B02D900
:10460000032300F00EBE4FF40033C7F8D431D7F8BF
:10461000D43193FAA3F3C7F8D031D7F8D031B3FA35
:1046200083F3DBB25B09DBB243F00103DBB2012BA6
:1046300002D1484B1B6815E04FF40033C7F8CC316A
:10464000D7F8CC3193FAA3F3C7F8C8314FF400334D
:10465000C7F8C431D7F8C43193FAA3F3C7F8C0310F
:104660003C4B5B6A4FF40032C7F8BC21D7F8BC2141
:1046700092FAA2F2C7F8B821D7F8B821B2FA82F2BA
:1046800052B242F0200252B2D2B202F01F02012115
:1046900001FA02F21340002BAAD05EE0FDF7DEFB28
:1046A000C7F8F8010AE0FDF7D9FB0246D7F8F83160
:1046B000D31A642B02D9032300F0B3BD4FF40033A7
:1046C000C7F8B431D7F8B43193FAA3F3C7F8B031CF
:1046D000D7F8B031B3FA83F3DBB25B09DBB243F056
:1046E0000103DBB2012B02D11A4B1B6815E04FF41A
:1046F0000033C7F8AC31D7F8AC3193FAA3F3C7F85D
:10470000A8314FF40033C7F8A431D7F8A43193FA95
:10471000A3F3C7F8A0310F4B5B6A4FF40032C7F820
:104720009C21D7F89C2192FAA2F2C7F89821D7F8D9
:104730009821B2FA82F252B242F0200252B2D2B2C0
:1047400002F01F02012101FA02F21340002BAAD14C
:1047500003E000BF0010024000BF3B1D1B681B6848
:1047600003F00203002B00F07081D04B5B6803F074
:104770000C03002B0BD0CD4B5B6803F00C03082B14
:104780006DD1CA4B5B6803F48033002B67D10223E1
:10479000C7F89431D7F8943193FAA3F3C7F890315E
:1047A000D7F89031B3FA83F3DBB25B09DBB243F0A5
:1047B0000103DBB2012B02D1BC4B1B6813E00223C7
:1047C000C7F88C31D7F88C3193FAA3F3C7F8883146
:1047D0000223C7F88431D7F8843193FAA3F3C7F8DA
:1047E0008031B24B5B6A0222C7F87C21D7F87C216A
:1047F00092FAA2F2C7F87821D7F87821B2FA82F2B9
:1048000052B242F0200252B2D2B202F01F02012193
:1048100001FA02F21340002B07D03B1D1B681B69F5
:10482000012B02D0012300F0FCBCA0489F4B1B6869
:1048300023F0F8023B1D1B685969F823C7F874314F
:10484000D7F8743193FAA3F3C7F87031D7F8703101
:10485000B3FA83F301FA03F313430360F5E03B1D5E
:104860001B681B69002B00F085800123C7F86C31A1
:10487000D7F86C3193FAA3F3C7F86831D7F86831E9
:10488000B3FA83F303F1845303F584139B001A46B0
:1048900001231360FDF7E2FAC7F8F8010AE0FDF71B
:1048A000DDFA0246D7F8F831D31A022B02D90323D6
:1048B00000F0B7BC0223C7F86431D7F8643193FA2B
:1048C000A3F3C7F86031D7F86031B3FA83F3DBB2F2
:1048D0005B09DBB243F00103DBB2012B02D1734B66
:1048E0001B6813E00223C7F85C31D7F85C3193FAF8
:1048F000A3F3C7F858310223C7F85431D7F854311D
:1049000093FAA3F3C7F85031684B5B6A0222C7F8E9
:104910004C21D7F84C2192FAA2F2C7F84821D7F8D7
:104920004821B2FA82F252B242F0200252B2D2B21E
:1049300002F01F02012101FA02F21340002BAED057
:104940005A485A4B1B6823F0F8023B1D1B685969F3
:10495000F823C7F84431D7F8443193FAA3F3C7F8E2
:104960004031D7F84031B3FA83F301FA03F313432C
:1049700003606AE00123C7F83C31D7F83C3193FA71
:10498000A3F3C7F83831D7F83831B3FA83F303F11A
:10499000845303F584139B001A4600231360FDF72C
:1049A0005DFAC7F8F8010AE0FDF758FA0246D7F8B1
:1049B000F831D31A022B02D9032300F032BC0223B0
:1049C000C7F83431D7F8343193FAA3F3C7F830314C
:1049D000D7F83031B3FA83F3DBB25B09DBB243F0D3
:1049E0000103DBB2012B02D1304B1B6813E0022321
:1049F000C7F82C31D7F82C3193FAA3F3C7F8283134
:104A00000223C7F82431D7F8243193FAA3F3C7F867
:104A10002031264B5B6A0222C7F81C21D7F81C21E3
:104A200092FAA2F2C7F81821D7F81821B2FA82F246
:104A300052B242F0200252B2D2B202F01F02012161
:104A400001FA02F21340002BAED13B1D1B681B681C
:104A500003F00803002B00F0D8803B1D1B689B6906
:104A6000002B67D00123C7F81431D7F8143193FA1B
:104A7000A3F3C7F81031D7F81031B3FA83F31A460D
:104A80000B4B13449B001A4601231360FDF7E6F914
:104A9000C7F8F8010EE0FDF7E1F90246D7F8F83162
:104AA000D31A022B06D90323BBE300BF0010024038
:104AB000208190100223C7F80C31D7F80C3193FAFB
:104AC000A3F3C7F808310223C7F80431D7F804313B
:104AD00093FAA3F207F580731A6007F1FC03022230
:104AE0001A6007F1FC031B6893FAA3F207F1F803BD
:104AF0001A60A54B5A6A07F1F4030221196007F105
:104B0000F4031B6893FAA3F107F1F003196007F1AE
:104B1000F0031B68B3FA83F35BB243F060035BB24C
:104B2000DBB203F01F03012101FA03F31340002B52
:104B3000B1D06AE007F1EC0301221A6007F1EC033F
:104B40001B6893FAA3F207F1E8031A6007F1E80380
:104B50001B68B3FA83F31A468C4B13449B001A4626
:104B600000231360FDF77AF9C7F8F80109E0FDF7B3
:104B700075F90246D7F8F831D31A022B01D903236D
:104B80004FE307F1E40302221A6007F1E4031B6814
:104B900093FAA3F207F1E0031A6007F1DC030222A3
:104BA0001A6007F1DC031B6893FAA3F207F1D8033C
:104BB0001A6007F1D40302221A6007F1D4031B68BC
:104BC00093FAA3F207F1D0031A606F4B5A6A07F108
:104BD000CC030221196007F1CC031B6893FAA3F1FF
:104BE00007F1C803196007F1C8031B68B3FA83F320
:104BF0005BB243F060035BB2DBB203F01F03012141
:104C000001FA03F31340002BB1D13B1D1B681B6855
:104C100003F00403002B00F05981002387F8FF31D3
:104C2000594BDB6903F08053002B12D1564A564B87
:104C3000DB6943F08053D361534BDB6903F080524F
:104C400007F10C031A6007F10C031B68012387F8B6
:104C5000FF314F4B1B6803F48073002B1AD14C4A71
:104C60004B4B1B6843F480731360FDF7F7F8C7F8EC
:104C7000F80109E0FDF7F2F80246D7F8F831D31A47
:104C8000642B01D90323CCE2414B1B6803F48073EE
:104C9000002BEFD03B1D1B68DB68012B06D13A4A85
:104CA000394B1B6A43F0010313622FE03B1D1B6865
:104CB000DB68002B0CD1344A334B1B6A23F0010311
:104CC0001362314A304B1B6A23F0040313621DE068
:104CD0003B1D1B68DB68052B0CD12B4A2A4B1B6A3A
:104CE00043F004031362284A274B1B6A43F0010375
:104CF00013620BE0244A244B1B6A23F00103136266
:104D0000214A214B1B6A23F0040313623B1D1B68DD
:104D1000DB68002B6BD0FDF7A1F8C7F8F8010BE0BA
:104D2000FDF79CF80246D7F8F831D31A41F28832E1
:104D3000934201D9032374E207F1C40302221A60EB
:104D400007F1C4031B6893FAA3F207F1C0031A60CA
:104D500007F1BC0302221A6007F1BC031B6893FA37
:104D6000A3F207F1B8031A6007F1B8031B68B3FA9E
:104D700083F3DBB25B09DBB243F00203DBB2022B4D
:104D800008D1014B1B6A13E00010024020819010F3
:104D90000070004007F1B40302221A6007F1B40367
:104DA0001B6893FAA3F207F1B0031A60BB4B5B6A6E
:104DB00007F1AC020221116007F1AC02126892FA0D
:104DC000A2F107F1A802116007F1A8021268B2FA75
:104DD00082F252B242F0400252B2D2B202F01F024C
:104DE000012101FA02F21340002B99D064E0FDF793
:104DF00035F8C7F8F8010BE0FDF730F80246D7F8B0
:104E0000F831D31A41F28832934201D9032308E2E0
:104E100007F1A40302221A6007F1A4031B6893FAA6
:104E2000A3F207F1A0031A6007F19C0302221A60A3
:104E300007F19C031B6893FAA3F207F198031A6029
:104E400007F198031B68B3FA83F3DBB25B09DBB2AB
:104E500043F00203DBB2022B02D1904B1B6A0DE040
:104E600007F1940302221A6007F194031B6893FA76
:104E7000A3F207F190031A60884B5B6A07F18C027A
:104E80000221116007F18C02126892FAA2F107F177
:104E90008802116007F188021268B2FA82F252B2F7
:104EA00042F0400252B2D2B202F01F02012101FAD6
:104EB00002F21340002B9FD197F8FF31012B05D14F
:104EC000764A764BDB6923F08053D3613B1D1B6828
:104ED000DB69002B00F0A481704B5B6803F00C03CE
:104EE000082B00F09B813B1D1B68DB69022B40F007
:104EF000138107F184034FF080721A6007F1840375
:104F00001B6893FAA3F207F180031A6007F180038C
:104F10001B68B3FA83F303F1845303F584139B00F6
:104F20001A4600231360FCF799FFC7F8F80109E05F
:104F3000FCF794FF0246D7F8F831D31A022B01D9B7
:104F400003236EE107F17C034FF000721A6007F152
:104F50007C031B6893FAA3F207F178031A6007F148
:104F600078031B68B3FA83F3DBB25B09DBB243F06F
:104F70000103DBB2012B02D1484B1B681BE007F198
:104F800074034FF000721A6007F174031B6893FA00
:104F9000A3F207F170031A6007F16C034FF000727F
:104FA0001A6007F16C031B6893FAA3F207F1680318
:104FB0001A603A4B5B6A07F164024FF000711160AE
:104FC00007F16402126892FAA2F107F1600211601F
:104FD00007F160021268B2FA82F252B242F0200285
:104FE00052B2D2B202F01F02012101FA02F21340C2
:104FF000002B9DD12948294B5B6823F474123B1D7B
:105000001B68596A3B1D1B681B6A0B4313434360B3
:1050100007F15C034FF080721A6007F15C031B68B4
:1050200093FAA3F207F158031A6007F158031B68BB
:10503000B3FA83F303F1845303F584139B001A46F8
:1050400001231360FCF70AFFC7F8F80109E0FCF739
:1050500005FF0246D7F8F831D31A022B01D90323F2
:10506000DFE007F154034FF000721A6007F15403B8
:105070001B6893FAA3F207F150031A6007F150037B
:105080001B68B3FA83F3DBB25B09DBB243F00103C5
:10509000DBB2012B04D1014B1B681DE00010024064
:1050A00007F14C034FF000721A6007F14C031B68C4
:1050B00093FAA3F207F148031A6007F144034FF093
:1050C00000721A6007F144031B6893FAA3F207F118
:1050D00040031A60554B5B6A07F13C024FF00071C8
:1050E000116007F13C02126892FAA2F107F138024E
:1050F000116007F138021268B2FA82F252B242F03D
:10510000200252B2D2B202F01F02012101FA02F2D1
:105110001340002B9BD083E007F134034FF08072E3
:105120001A6007F134031B6893FAA3F207F1300306
:105130001A6007F130031B68B3FA83F303F1845359
:1051400003F584139B001A4600231360FCF786FEC8
:10515000C7F8F80109E0FCF781FE0246D7F8F831FC
:10516000D31A022B01D903235BE007F12C034FF084
:1051700000721A6007F12C031B6893FAA3F207F17F
:1051800028031A6007F128031B68B3FA83F3DBB224
:105190005B09DBB243F00103DBB2012B02D1234BED
:1051A0001B681BE007F124034FF000721A6007F13F
:1051B00024031B6893FAA3F207F120031A6007F196
:1051C0001C034FF000721A6007F11C031B6893FA6E
:1051D000A3F207F118031A60144B5B6A07F114027B
:1051E0004FF00071116007F11402126892FAA2F1F7
:1051F00007F11002116007F110021268B2FA82F290
:1052000052B242F0200252B2D2B202F01F02012189
:1052100001FA02F21340002B9DD101E0012300E0CE
:105220000023184607F50077BD4680BD00100240F8
:1052300080B59EB000AF7860396000237B677B68E3
:10524000002B01D1012364E1924B1B6803F007029C
:105250003B689A4210D28F498E4B1B6823F007029D
:105260003B6813430B608B4B1B6803F007023B68E2
:105270009A4201D001234CE17B681B6803F00203D2
:10528000002B08D08449844B5B6823F0F0027B68D4
:105290009B6813434B607B681B6803F00103002B82
:1052A00000F0DF807B685B68012B3DD14FF4003359
:1052B0003B673B6F93FAA3F3FB66FB6EB3FA83F392
:1052C000DBB25B09DBB243F00103DBB2012B02D19D
:1052D000714B1B680FE04FF40033BB66BB6E93FA53
:1052E000A3F37B664FF400333B663B6E93FAA3F364
:1052F000FB65694B5B6A4FF40032BA65BA6D92FA8E
:10530000A2F27A657A6DB2FA82F252B242F02002CB
:1053100052B2D2B202F01F02012101FA02F213408E
:10532000002B7DD10123F4E07B685B68022B3DD12B
:105330004FF000733B653B6D93FAA3F3FB64FB6C8A
:10534000B3FA83F3DBB25B09DBB243F00103DBB2F8
:10535000012B02D1504B1B680FE04FF00073BB6470
:10536000BB6C93FAA3F37B644FF000733B643B6C1C
:1053700093FAA3F3FB63484B5B6A4FF00072BA6386
:10538000BA6B92FAA2F27A637A6BB2FA82F252B2F2
:1053900042F0200252B2D2B202F01F02012101FA01
:1053A00002F21340002B3BD10123B2E002233B6306
:1053B0003B6B93FAA3F3FB62FB6AB3FA83F3DBB2B2
:1053C0005B09DBB243F00103DBB2012B02D1324BAC
:1053D0001B680DE00223BB62BB6A93FAA3F37B62F6
:1053E00002233B623B6A93FAA3F3FB612A4B5B6A9D
:1053F0000222BA61BA6992FAA2F27A617A69B2FAC1
:1054000082F252B242F0200252B2D2B202F01F0235
:10541000012101FA02F21340002B01D1012378E0AF
:105420001D491D4B5B6823F003027B685B681343D7
:105430004B60FCF713FD78670AE0FCF70FFD0246AE
:105440007B6FD31A41F28832934201D9032360E083
:10545000114B5B6803F00C027B685B689B009A420F
:10546000EBD10C4B1B6803F007023B689A4215D93D
:105470000849084B1B6823F007023B6813430B6085
:10548000044B1B6803F007023B689A4206D00123D5
:105490003FE000BF00200240001002407B681B6814
:1054A00003F00403002B08D01C491C4B5B6823F459
:1054B000E0627B68DB6813434B607B681B6803F02A
:1054C0000803002B09D01549144B5B6823F4605284
:1054D0007B681B69DB0013434B6000F025F8014635
:1054E0000E4B5B6803F0F002F0233B613B6993FADB
:1054F000A3F3FB60FB68B3FA83F322FA03F3084AD1
:10550000D35C21FA03F3074A13600020FCF762FC26
:10551000002318467837BD4680BD00BF001002400A
:10552000BCB800080800002080B48BB000AF002396
:10553000FB610023BB6100237B6200237B610023AE
:105540003B62294B5B68FB61FB6903F00C03042B96
:1055500002D0082B03D03CE0244B3B623CE0FB69CB
:1055600003F470124FF47013BB60BB6893FAA3F39B
:105570007B607B68B3FA83F322FA03F31C4AD35CA3
:105580007B61194BDB6A03F00F020F233B613B6920
:1055900093FAA3F3FB60FB68B3FA83F322FA03F3F5
:1055A000144AD35CBB61FB6903F48033002B08D041
:1055B0000E4ABB69B2FBF3F37A6902FB03F37B6229
:1055C00004E07B690C4A02FB03F37B627B6A3B626B
:1055D00002E0064B3B6200BF3B6A18462C37BD46D3
:1055E0005DF8047B704700BF0010024000127A0093
:1055F0009CB80008ACB8000800093D0080B400AFBA
:10560000034B1B681846BD465DF8047B704700BF1E
:105610000800002080B582B000AFFFF7EFFF014621
:105620000B4B5B6803F4E0624FF4E0637B607B68E4
:1056300093FAA3F33B603B68B3FA83F322FA03F3D4
:10564000044AD35C21FA03F318460837BD4680BDEF
:1056500000100240CCB8000880B582B000AFFFF760
:10566000CDFF01460B4B5B6803F460524FF460536F
:105670007B607B6893FAA3F33B603B68B3FA83F3E8
:1056800022FA03F3044AD35C21FA03F318460837DD
:10569000BD4680BD00100240CCB8000880B592B075
:1056A00000AF786000233B640023FB637B681B68CA
:1056B00003F48033002B00F0CF80002387F84730BD
:1056C000864BDB6903F08053002B0ED1834A834B5A
:1056D000DB6943F08053D361804BDB6903F0805377
:1056E000BB60BB68012387F847307D4B1B6803F420
:1056F0008073002B18D17A4A794B1B6843F480736E
:105700001360FCF7ABFB386408E0FCF7A7FB02462C
:105710003B6CD31A642B01D90323DAE0704B1B686E
:1057200003F48073002BF0D06C4B1B6A03F44073BE
:10573000FB63FB6B002B7CD07B685B6803F44072DF
:10574000FB6B9A4275D0654B1B6A23F44073FB6375
:105750004FF480333B633B6B93FAA3F3FB62FB6A2A
:10576000B3FA83F31A465F4B13449B001A46012396
:1057700013604FF48033BB63BB6B93FAA3F37B637B
:105780007B6BB3FA83F31A46564B13449B001A46BD
:1057900000231360514AFB6B1362FB6B03F00103A0
:1057A000002B46D0FCF75AFB38640AE0FCF756FBA6
:1057B00002463B6CD31A41F28832934201D903234B
:1057C00087E00223BB62BB6A93FAA3F37B620223E6
:1057D0003B623B6A93FAA3F3FB61FB69B3FA83F381
:1057E000DBB25B09DBB243F00203DBB2022B02D176
:1057F0003A4B1B6A07E00223BB61BB6993FAA3F330
:105800007B61364B5B6A02223A613A6992FAA2F2F4
:10581000FA60FA68B2FA82F252B242F0400252B230
:10582000D2B202F01F02012101FA02F21340002B52
:10583000BCD02A49294B1B6A23F440727B685B6801
:1058400013430B6297F84730012B05D1234A234BB2
:10585000DB6923F08053D3617B681B6803F001038D
:10586000002B08D01D491D4B1B6B23F003027B68E6
:105870009B6813430B637B681B6803F02003002BBA
:1058800008D01649154B1B6B23F010027B68DB68B0
:1058900013430B637B681B6803F08003002B08D065
:1058A0000E490E4BDB6A23F4F8727B681B691343C5
:1058B000CB627B681B6803F48053002B08D0074938
:1058C000064B1B6B23F480727B685B6913430B638D
:1058D000002318464837BD4680BD00BF0010024077
:1058E000007000400081901080B582B000AF7860F9
:1058F0007B68002B01D101231DE07B6893F83D30CC
:10590000DBB2002B06D17B68002283F83C2078684C
:1059100002F01EF87B68022283F83D207B681A683B
:105920007B6804331946104600F050F97B68012269
:1059300083F83D20002318460837BD4680BD80B55A
:1059400082B000AF78607B681B681B6903F00203BC
:10595000022B22D17B681B68DB6803F00203022B59
:105960001BD17B681B686FF002021A617B68012201
:105970001A777B681B689B6903F00303002B03D035
:10598000786800F005F905E0786800F0F7F87868C5
:1059900000F008F97B6800221A777B681B681B6996
:1059A00003F00403042B22D17B681B68DB6803F03F
:1059B0000403042B1BD17B681B686FF004021A617F
:1059C0007B6802221A777B681B689B6903F440732B
:1059D000002B03D0786800F0DBF805E0786800F071
:1059E000CDF8786800F0DEF87B6800221A777B68D3
:1059F0001B681B6903F00803082B22D17B681B6816
:105A0000DB6803F00803082B1BD17B681B686FF071
:105A100008021A617B6804221A777B681B68DB69BD
:105A200003F00303002B03D0786800F0B1F805E021
:105A3000786800F0A3F8786800F0B4F87B6800227A
:105A40001A777B681B681B6903F01003102B22D1A7
:105A50007B681B68DB6803F01003102B1BD17B688D
:105A60001B686FF010021A617B6808221A777B6846
:105A70001B68DB6903F44073002B03D0786800F0E7
:105A800087F805E0786800F079F8786800F08AF81F
:105A90007B6800221A777B681B681B6903F001038F
:105AA000012B0ED17B681B68DB6803F00103012B1F
:105AB00007D17B681B686FF001021A61786801F0FA
:105AC00077F87B681B681B6903F08003802B0ED17D
:105AD0007B681B68DB6803F08003802B07D17B6841
